:0200000460009A
:100000004643464200000156000000000103030081
:1000100000000000000000000000000000000000E0
:1000200000000000000000000000000000000000D0
:1000300000000000000000000000000000000000C0
:1000400000000000010408000000000000000000A3
:100050000000800000000000000000000000000020
:100060000000000000000000000000000000000090
:100070000000000000000000000000000000000080
:10008000EB04180A063204260000000000000000FD
:10009000050404240000000000000000000000002F
:1000A0000000000000000000000000000000000050
:1000B0000604000000000000000000000000000036
:1000C0000000000000000000000000000000000030
:1000D00020041808000000000000000000000000DC
:1000E0000000000000000000000000000000000010
:1000F0000000000000000000000000000000000000
:10010000D8041808000000000000000000000000F3
:100110000204180804200000000000000000000095
:1001200000000000000000000000000000000000CF
:10013000600400000000000000000000000000005B
:1001400000000000000000000000000000000000AF
:10015000000000000000000000000000000000009F
:10016000000000000000000000000000000000008F
:10017000000000000000000000000000000000007F
:10018000000000000000000000000000000000006F
:10019000000000000000000000000000000000005F
:1001A000000000000000000000000000000000004F
:1001B000000000000000000000000000000000003F
:1001C000000100000010000001000000000000001D
:1001D000000001000000000000000000000000001E
:1001E000000000000000000000000000000000000F
:1001F00000000000000000000000000000000000FF
:10020000FFFFFFFFFFFFFFFFFFFFFFFFFFFFFFFFFE
:10021000FFFFFFFFFFFFFFFFFFFFFFFFFFFFFFFFEE
:10100000D10020434D1600600000000000000000E9
:10101000201000600010006000140160000000005B
:10102000000000600020010000000000FFFFFFFF43
:10103000FFFFFFFFFFFFFFFFFFFFFFFFFFFFFFFFC0
:10104000FFFFFFFFFFFFFFFFFFFFFFFFFFFFFFFFB0
:10105000FFFFFFFFFFFFFFFFFFFFFFFFFFFFFFFFA0
:10106000FFFFFFFFFFFFFFFFFFFFFFFFFFFFFFFF90
:10140000814205D051F8043B40F8043B8242F9D8B0
:10141000704700BF044A05494FF0000342F8043BFF
:101420009142FBD8704700BFC0220020C02F00208F
:101430002DE98848BFF34F8F00BF00BF00BF00BF3A
:1014400000F042F9684B0822C3F8542100BF00BFE6
:1014500000BF00BF00BF00BF00BF00BF00BF00BF94
:1014600000BF00BF00BF00BF00BF00BF5F4A6049B0
:101470006048FFF7C5FF604A60496148FFF7C0FF59
:10148000604CFFF7C7FF4FF470004FF0E0210023DE
:101490005D4AC1F8880D44F823200133B02BFAD1FE
:1014A0005A4B80215A4A03F8011B9342FBD14FF05B
:1014B000E0254D4E4FF08039DFF884B1DFF884A18C
:1014C0004FF0FF31C5F8084D0027C6F80491C6F863
:1014D00000B1C6F8F490C6F8F0A0D5F8243DDFF8C6
:1014E000688143F4E0234B4AC5F8243DD8F81C300A
:1014F00023F07F0343F04003C8F81C30D8F82430B1
:1015000023F07F0343F04003C8F824309166D1668E
:101510001167516700F0E0F83F4B4049A363404B2F
:10152000E36363236B610323AF612B613D4BC5F81C
:10153000203DD5F8FC3D43F08073C5F8FC3D3A4BA7
:101540001A6842F001021A605B680B6000F00EFB43
:10155000C6F804913548C6F800B1C6F8F490C6F84C
:10156000F0A000F081FCD8F86C10314B314A41F406
:101570004051C8F86C101F60C3F80871C3F81871A7
:10158000C3F82871C3F83871936BDB0708D442F6AF
:101590001563294951651365936B43F00103936308
:1015A000244A264C936843F00113936000F01CF921
:1015B00000F060F800F04CFC00F006FB00F086F84C
:1015C0002368132BFCD900F097FB2368B3F5967FB3
:1015D000FBD300F07FF800F07BF800F035FC00F062
:1015E0002FFC30BFFDE700BF00800D4058CD00004C
:1015F0008820006000000000C0220020E4ED0060B0
:101600000000002000200020DD75000000E400E064
:10161000A0E400E000C00A407D8A00004C2F0020BA
:10162000818A000000002020001000E00046C32353
:101630000040084000400D400000C056502F0020E0
:101640001B1018200C0D111300C00F40054B4FF458
:101650002A01054A05485A641864054A9963954663
:10166000FFF7E6FE00C00A40AFAAAAAA07002000C2
:1016700000000720104BA020104AD96E41F44031E1
:1016800010B4D96640F23764D96E41F44071D9661E
:1016900054649064936C1B06FCD4094A40F2376191
:1016A000A02351649364936C13F08003FBD1054A2B
:1016B00013705DF8044B704700C00F4000400C40B1
:1016C00000800C407E2F0020704700BF704700BF95
:1016D000704700BF00BF704710B44FF0E0230021F7
:1016E00010243148C3F8941DC3F89C4D1124C3F84D
:1016F000A00D2E48C3F89C4D1224C3F8A00D2C4811
:10170000C3F89C4D2B4AC3F8A00D2B4C42F0150298
:101710002A48C3F89C4DC3F8A00D294C2948C3F8AA
:101720009C4DC3F8A00D284CC3F89C2D2748284A8F
:10173000C3F8A04DC3F89C0DC3F8A02D02F5A0225C
:10174000244C0C322448C3F89C4DC3F8A02D234AE6
:10175000C3F89C0D224CC3F8A02D02F14062C3F8DF
:101760009C4D2048C3F8A02D0C32C3F89C0DC3F843
:10177000A02D00BF00BF00BF00BF00BF0122C3F803
:10178000942DBFF34F8FBFF36F8FC3F8501FBFF37C
:101790004F8FBFF36F8FD3F8142D5DF8044B42F4D5
:1017A0004032C3F8142D70473F0000102500080791
:1017B00009001000C02F00201300200021000207A4
:1017C0001400002025000813090000101600202036
:1017D00027000B1317000040180000602F000B07B4
:1017E000190000701A000080F0B5B84B1822B84EEE
:1017F0000120B84F83B0C3F85C62B749C3F8607288
:10180000B64DC3F86462A6F53046B54CC3F86862BD
:10181000C3F86C52C3F87052C3F87452C3F87852CC
:1018200048F20C75DA661A675A679A67DA67C3F87E
:101830008020C3F88420C3F88820C1F82C03A94A6B
:10184000C1F83003C1F83403C1F83803C1F83C03D0
:10185000C1F85003A169A44B0A40A448A44913430A
:10186000A44AA361D4F8843043F00C03C4F8843054
:101870004FF0FF34036843F00203036003682B401A
:101880004FF400551A439C4B026044608A689B4C9D
:1018900013409B4A43F000538360C36823F07803EE
:1018A000C360036A134023430362036A1340954AEB
:1018B0002343954C43628262C2620022D1F8B83061
:1018C00023F03F0343F00103C0F8B830D1F8BC3037
:1018D0008E4923F03F0343F00103C0F8BC3040F2CF
:1018E0000563026105660467C0F880304566446799
:1018F0000224C0F88430036823F00203036081618E
:10190000834B8449C46143F8042B8B42FBD1774A53
:10191000136843F001031360136813F00103FBD154
:101920007A48022140F2F564906140F29940D16119
:1019300040F26641C2F8004242F20144C2F810127D
:101940007549C2F82002C2F8301240F2354173489E
:10195000C2F83442C2F84012714CC2F8500242F24E
:1019600001207049C2F854120121C2F86042C2F845
:1019700064025E48C2F8A030C2F8A430C2F8B010C9
:101980004369DA07FCD5012300244FF4803257491C
:101990004361C0F8A040C0F8A420C0F8B0304B6943
:1019A000DB07FCD5012300244FF400304F4A4B6184
:1019B000C1F8A040C1F8A400C1F8B0305369DF07F6
:1019C000FCD501230024584848495361C2F8A0407F
:1019D000C2F8A400C2F8B0304B69DE07FCD5D1F8DC
:1019E000003145F60D5221209BB24861934265D1EA
:1019F00000244FF4802201233C48C1F8A040C1F8E4
:101A0000A420C1F8B0304369DD07FCD501234FF4B1
:101A100000040021354A4361C0F8A040C0F8A4107A
:101A2000C0F8B0305369DC07FCD501234FF4000443
:101A30004FF480302D495361C2F8A040C2F8A40091
:101A4000C2F8B0304B69D807FCD501234FF400042D
:101A50004FF40030254A4B61C1F8A040C1F8A40002
:101A6000C1F8B0305369D907FCD501234FF4000405
:101A70002D481E495361C2F8A040C2F8A400C2F824
:101A8000B0304B69DA07FCD5D1F8003145F60D527C
:101A900021209BB24861934250D008254FF40004A6
:101AA00022490020224B234A009015705A1A012324
:101AB0002148224400F0DCF903B0F0BD1E4B0022A7
:101AC000C3E90022C3E9022203B0F0BD00801F4039
:101AD000F9B00100F910010000841F40F970010005
:101AE00000C00F40FFFCFF1F000300A000402A4081
:101AF00000802A401200FFFFFF37F70040000080FF
:101B000000FFF07CFF000F8363000200F05AF05AE0
:101B100000422A4000432A409F041830EB06180A6E
:101B20003806180A0632012604000300000000707F
:101B3000000000707F2F0020982D00204FF400043B
:101B40004FF4802201230848C1F8A040C1F8A42026
:101B5000C1F8B0304369DB07FCD5012310254FF0F5
:101B6000807443619CE700BF00402A40F0B4154AEE
:101B700040274FF480314FF480564FF400554FF416
:101B8000404443F24200136913F0020F0ED113F4E4
:101B9000005F0FD013F4805F0ED0002BF3DA13F444
:101BA000803F0BD15B060BD5F0BC7047946151614F
:101BB0009061E8E75561E6E75661E4E79161E2E7A5
:101BC0005761E0E700800D403F4A03203F49F3EEB4
:101BD000095AD2F880304FF0000C9FED3D6A23F097
:101BE00001039FED3C5A30B4C2F88030C2F8900037
:101BF000D1F8E010384DCBB2384C39482B6007EEA5
:101C0000903A0B0DC1F30B21F8EEE77A06EE903A0D
:101C100007EE101A334BB8EEC77A2160F8EEE66A89
:101C2000314937EEC66A37EEC55A76EEC76A77EEA7
:101C3000E57A26EE266AC3ED006A25EE265AD2F82A
:101C4000803067EEA64AC0ED007AC6EE275A2748D4
:101C500085EE276AC4EEA76A75EE875AFCEEE55A50
:101C600036EE076A15EE904ABCEEC66A43EA0453A4
:101C700076EE877AC2F8803016EE103AD2F89041AC
:101C8000FCEEE77A01EA0341214317EE903AC2F8ED
:101C90009011C3F30B03D2F890110B431449C2F80F
:101CA0009031D2F8803043F00203C2F88030114BFB
:101CB00080F840C0C1F840314FF0E023012230BC31
:101CC000C3F80821704700BF00810D4000441F4049
:101CD0000000AA420000B4423C2F0020382F002010
:101CE000402F0020442F00200000FF0F00E400E000
:101CF00000200020A1770000314B40F6617210B542
:101D0000C3F8202140F2044400F0A6F82D4A2E49E1
:101D1000D2F880302D4843F00303C2F880302C4BBA
:101D2000C1F8604102681A4203D1D1F8A8319A077C
:101D30001BD0254A4FF00041244B5963D2F8403163
:101D400043F00203C2F84031D2F840319B07FBD484
:101D50004FF400304FF0E0211C4B4FF00042C1F82F
:101D60008C0219209A6300F087F8184A4FF08040DF
:101D7000154C002190630A20164B11604FF420721D
:101D8000C4F8A801184600F06BF84FF4800203462F
:101D90004FF4810040F243111860C4F858311A64BE
:101DA0000D4B0E4AC4F84811C3F804224FF0E0224C
:101DB0004FF400310123C2F80C11C4F8403110BDBA
:101DC00000800D4000C00F4000002E4000900D40EC
:101DD000001C1E0000000020002000208979000067
:101DE00008B50E4B1B6E9B0700D4FBBE72B60C4BA6
:101DF00000200C4AC3F8400103F160430A49A3F5EF
:101E00005F2311649D46BFF34F8F4FF400130748C3
:101E1000074ADB6902609B68984700BF00441F4087
:101E200000002E4000C00A40030020000080202057
:101E3000000012EBF8B500BFF8BC08BC9E46704726
:101E40005FF800F0097400005FF800F099C8000026
:101E50005FF800F01D8B00005FF800F0F9800000D3
:101E60005FF800F0E9C700005FF800F02D6E000099
:101E70005FF800F05D8C00005FF800F01D7100005D
:101E800005010000850F000049150000C968000029
:101E900080C00F4000000003190000001000000087
:101EA000E8841F4001000000FF000000FF00000068
:101EB00000000000000000001800000010000000FA
:101EC000E4841F4001000000FF000000FF0000004C
:101ED00000000000000000001F0000004911000089
:101EE00070C00F40000C0000110000001100000045
:101EF000E0841F40020000002C00000012000000DF
:101F0000E0841F40010000001000000011000000EC
:101F1000DC841F40020000002D00000012000000C1
:101F2000DC841F40010000001E0000003D11000085
:101F300070C00F40C000000012000000130000003D
:101F4000D0841F4001000000FF000000FF000000DF
:101F5000000000000000000013000000130000005B
:101F6000CC841F4001000000FF000000FF000000C3
:101F700000000000000000001C0000003111000003
:101F80001603550053004200200053006500720004
:101F9000690061006C0000001803540065006500D2
:101FA0006E00730079006400750069006E006F00B8
:101FB0000403090409026200030100C032080B0097
:101FC00002020201000904000001020201000524CE
:101FD0000010010524010101042402060524060065
:101FE000010705820310001009040100020A000025
:101FF00000070503024000000705840240000009B5
:1020000004020002FF6AFF00070581024000010789
:10201000050102400001000009026200030100C046
:1020200032080B0002020201000904000001020252
:102030000100052400100105240101010424020609
:1020400005240600010705820310000509040100AC
:10205000020A0000000705030200020007058402CF
:102060000002000904020002FF6AC700070581029E
:102070000002010705010200020100000A06000239
:08208000EF0201400100000025
:102088000000000000000000000000000000000048
:102098000000000000000000000000000000000038
:1020A800F8B54FF084439D695A6915400DD0254F06
:1020B80001269D6195FAA5F4B4FA84F457F8243002
:1020C80006FA04F49847A543F4D11F4B9D695A6951
:1020D80015400DD01D4F01269D6195FAA5F4B4FA5F
:1020E80084F457F8243006FA04F49847A543F4D149
:1020F800174B9D695A6915400DD0164F01269D61F1
:1021080095FAA5F4B4FA84F457F8243006FA04F4DE
:102118009847A543F4D1104B9D695A6915400DD0D5
:102128000E4F01269D6195FAA5F4B4FA84F457F888
:10213800243006FA04F49847A543F4D1BFF34F8F2F
:10214800F8BD00BFDC190020004000425C1A0020E6
:1021580000800042DC1A002000C000425C1B002006
:102168000548064B1B1AD90F01EBA301491002D0F1
:10217800034B03B118477047C0220020C02200203B
:102188000000000008B5054B1BB105490548AFF331
:102198000080BDE80840FFF7E3BF00BF0000000073
:1021A800B82D00200020016000207047704700BF54
:1021B800036D0BB101207047406D003818BF012036
:1021C800704700BF704700BF10B50446806D18B156
:1021D8000CF062F80023A365236D2BB104F11800FD
:1021E800BDE8104005F09ABD636D002BF6D110BD17
:1021F80010B50446806D00B110BD4FF480700CF02E
:1022080043F8A065B0B10022236D02703BB10146CE
:102218004FF48072184605F0D1F9A06D10BD636DBA
:10222800002BE9D001464FF48072184603F05EF99E
:10223800A06D10BD014B1846A36510BD7D2F002071
:1022480038B5056D6DB10BB1002038BD1146284673
:1022580004F0DAF90028F7D02846BDE8384004F041
:1022680075BB446D002CEFD0204602F0EDF8002835
:10227800EAD02046BDE8384002F060BF8A79A2F172
:1022880050031B0622D402F26C72F0B54B7985B06C
:10229800046D01330D798E784F78DBB209784CB133
:1022A800204601960095CDE90271022104F0E2FA78
:1022B80005B0F0BD406D0028FAD001960095CDE933
:1022C8000271022102F07EFE05B0F0BD00207047C9
:1022D80010B50446006D80B1037813F0700F00D17B
:1022E80010BD002104F090F9606D0028F8D000229C
:1022F8000023BDE8104002F0A7B8606D0028EFD0B9
:1023080090F8313013F0500FEAD000220023BDE8D6
:10231800104002F099B800BF036D10B50C4682B0AA
:102328002BB30DF1060201A9184603F013FD38B3CB
:10233800BDF80430BDF8062053EA020120D0C2F3EC
:10234800451C02F01F00D20AC3F34311400084F871
:1023580001C0A2705A0A013903F01F0302F5EA62AC
:102368002070012061712371A27102B010BD406D0F
:1023780030B10DF1060201A901F00CFF0028D7D1F8
:10238800002002B010BD00BF036D10B50C4682B02E
:102398002BB30DF1060201A9184603F0CBFC38B3A4
:1023A800BDF80430BDF8062053EA020120D0C2F37C
:1023B800451C02F01F00D20AC3F34311400084F801
:1023C80001C0A2705A0A013903F01F0302F5EA623C
:1023D8002070012061712371A27102B010BD406D9F
:1023E80030B10DF1060201A901F0C2FE0028D7D1D3
:1023F800002002B010BD00BF006990B10368154A03
:102408001B69934225D1036D63B1187810F0080059
:1024180007D0D8695B69C01A48BF6FF000407047A1
:1024280018467047436D002BFAD093F8310010F02E
:102438000800F6D0186919685A69401A5B6862EB97
:102448000303B0F1004F73F10003EAD36FF00040CB
:10245800704718478D070000036963B11A68074978
:1024680092698A4208D1186D08B104F0FDB9586D17
:1024780008B102F031BC70471846104769060000E1
:10248800036973B11A68084952698A4207D1186DFD
:1024980008B103F045BF586D18B101F0BFBF184629
:1024A80010474FF0FF307047C105000000B50069C4
:1024B80083B08DF8071060B10368104ADB68934257
:1024C80015D1036D43B101220DF10701184604F03F
:1024D80077FA03B05DF804FB406D0028F9D00122BB
:1024E8000DF1070102F09CFE03B05DF804FB012228
:1024F8000DF10701984703B05DF804FB9106000051
:10250800036923B31968134A10B58C6882B09442E2
:1025180014D1186D48B101220DF1070103F02CFE0A
:1025280090B19DF8070002B010BD586D0028F8D092
:1025380001220DF1070101F0A1FEF1E701220DF1E1
:1025480007011846A047EBE74FF0FF30EBE74FF0E5
:10255800FF30704719060000036D13B15869002158
:102568007047436D13B1D3E9000170471846194607
:10257800704700BF036D13B1D86900217047436DE0
:1025880013B1D3E90401704718461946704700BFD4
:10259800F0B595B000224FF47A74244F18310546EF
:1025A80004A88DF80C200097CDE90124CDE912226A
:1025B80005F020FC129B002B2DD05C20002607F094
:1025C80005F8019B04464660C36004A9029B1830C5
:1025D80040F8083C9DF80C3000F8043C144B40F8D7
:1025E800183C144B40F8103C05F056FB124B4FF4C6
:1025F8007A72A7602B606368A66501336E602E73DC
:10260800AA602C6163600D4B04A8009305F086FB5B
:10261800284615B0F0BD139B002BCED1064A2B736C
:102628002A602B61C5E90134EDE700BF4C080020A2
:1026380070080020CC08002020080020F4050020A5
:10264800036D13B1184603F06BBE406D08B101F07D
:10265800E5BE4FF0FF307047836C13B1184603F0A6
:102668005FBEC06C08B101F0D9BE4FF0FF307047B3
:10267800036D33B11B7813F0700F14BF01200020D5
:102688007047406D30B190F8313013F0500F14BFDF
:1026980001200020704700BF036D13B1184603F0F6
:1026A8006BBD406D08B101F0E9BD4FF0FF307047D8
:1026B800836C00B583B063B101220DF107011846A0
:1026C80003F05AFD01280CD19DF8070003B05DF80E
:1026D80004FBC06C28B101220DF1070101F0CEFD09
:1026E800F0E74FF0FF30F1E7036D13B1184604F03F
:1026F800BBB8406D08B102F0EFBA7047836C13B1F4
:10270800184604F0B1B8C06C08B102F0E5BA7047D9
:10271800036D13B1184604F053B9406D08B102F0C7
:102728007FBD7047836C13B1184604F049B9C06C7B
:1027380008B102F075BD704700B5836C83B08DF8A1
:10274800071043B101220DF10701184604F038F9CA
:1027580003B05DF804FBC06C0028F9D001220DF12C
:10276800070102F05DFD03B05DF804FB8A79A2F170
:1027780050031B0622D402F26C72F0B54B7985B077
:10278800046D01330D798E784F78DBB209784CB13E
:10279800204601960095CDE90271042104F06AF8FB
:1027A80005B0F0BD406D0028FAD001960095CDE93E
:1027B8000271042102F006FC05B0F0BD002070474C
:1027C800836C53B1187810F008000DD0D8695B6994
:1027D800C01A48BF6FF000407047C36CA3B193F8AC
:1027E800310010F0080000D17047186919685A695B
:1027F800401A5B6862EB0303B0F1004F73F100030A
:10280800F2D36FF0004070471846EDE7036D53B1FF
:10281800187810F008000DD0D8695B69C01A48BF55
:102828006FF000407047436DA3B193F8310010F08A
:10283800080000D17047186919685A69401A5B681E
:1028480062EB0303B0F1004F73F10003F2D36FF0B2
:10285800004070471846EDE70369D3B10E4810B43D
:102868001C68E46884420FD1186D18B15DF8044BF8
:1028780004F0A6B8586D18B15DF8044B02F0D0BC4E
:1028880000205DF8044B7047184623465DF8044B5A
:1028980018470020704700BF9106000038B504466D
:1028A8000C4B806D236018B10BF0F6FC0023A36578
:1028B800236D04F118054BB1284605F02FFA064B95
:1028C8002846A36005F02AFA204638BD636D002B20
:1028D800F2D1F4E770080020F405002038B504466A
:1028E8000E4B806D236018B10BF0D6FC0023A36556
:1028F800236D04F118056BB1284605F00FFA084B53
:102908002846A36005F00AFA20465C2106F060FE1E
:10291800204638BD636D002BEED1F0E7700800202B
:10292800F405002030B4029C11469C4634B1012CB9
:102938001CD0022C0ED0002030BC7047056DF5B1BC
:102948004FF0FF33934274EB0C04F4D3284630BCA9
:1029580003F05ABE026D0AB3D36959184CF100034B
:10296800002BE8D1104630BC03F04EBE026D62B1B8
:10297800536959184CF10003002BDCD1F2E7406D84
:102988000028D8D030BC01F05FBD406D0028D2D0FF
:10299800D0E900238A184CEB0303F3E7406D0028C5
:1029A800C9D0D0E9042330BC8A184CEB030301F0EA
:1029B8004BBD00BF70B5244B044605690360002D6C
:1029C80032D06E68013E6E6076BB2B681F4ADB6AA8
:1029D80093422FD1A86D10B10BF05EFCAE652B6D44
:1029E80023B305F1180005F099F92569E5B12B68BD
:1029F800174A5B68934224D1164BA86D2B6018B117
:102A08000BF04AFC0023AB652B6D05F11806A3B14A
:102A1800304605F083F9104B3046AB6005F07EF97F
:102A28005C21284606F0D4FD204670BD6B6D002B56
:102A3800D7D1DAE728469847D7E76B6D002BE7D15F
:102A4800E9E728469847EFE72008002049010000F9
:102A58005D08000070080020F405002070B5264BC2
:102A6800044605690360002D32D06E68013E6E6031
:102A780076BB2B68214ADB6A934233D1A86D10B12B
:102A88000BF00AFCAE652B6D43B305F1180005F099
:102A980045F92569E5B12B68194A5B68934228D145
:102AA800184BA86D2B6018B10BF0F6FB0023AB6533
:102AB8002B6D05F11806C3B1304605F02FF9124BFE
:102AC8003046AB6005F02AF95C21284606F080FD07
:102AD8002046142106F07CFD204670BD6B6D002B4E
:102AE800D3D1D6E728469847D3E76B6D002BE3D1BF
:102AF800E5E728469847EBE7200800204901000051
:102B08005D08000070080020F405002000000000A7
:102B18002DE9F047B44D96B0B44C40F2EE28B44FCE
:102B2800DFF820932E6807F00DFF2378002B00F0C4
:102B3800FF803B78D90740F1FB802B68D9F800204B
:102B48009B1A0E2B40F2F4801321AA4807F07CFE52
:102B5800A94805F0B1FFFE21A84805F08BFE002822
:102B680000F019811321A64807F06EFEA24805F06F
:102B7800A3FF01210D2006F0CBFB00210E2006F05B
:102B8800C7FB0021182006F0C3FB0021192006F01E
:102B9800BFFB44F202239B4A02A89B4905F0D8F9DF
:102BA800149B002B00F001815C204FF0000806F018
:102BB8000DFD964B06AF0646C0E90038039B18305A
:102BC800394640F80C3C924B40F8103C049B40F8C6
:102BD800083C9DF8143000F8043C05F05DF8736873
:102BE800C6F85880013373608A4BB360DFF8589297
:102BF8003846DFF85882CDF8089005F08FF8D8F8F5
:102C08001070002F3CD07B68013B7B600193002B48
:102C180036D13A688049D26A8A4240F01E81B86D3E
:102C280018B10BF039FB019BBB653B6D002B00F025
:102C38000F8107F1180005F071F8D8F81070FFB18E
:102C48003B68764A5B68934240F00F816F4BB86DE2
:102C58003B6018B10BF020FB0023BB653B6D07F10F
:102C6800180A002B00F0FC80504605F057F8504633
:102C7800C7F8089005F052F838465C2106F0A8FC21
:102C88000121C8F810605A4F40F2EE280846DFF8D4
:102C9800B49106F03DFB0121084606F0FDFA2E68C6
:102CA80007F050FE2378002B4DD03B78DA074AD541
:102CB8002B68D9F800209B1A0E2B44D907F042FE46
:102CC80023780120002B4BD03B78DB0748D52B68B5
:102CD800D9F800209B1A0E2B42D9642006F05EFA20
:102CE80015214F4807F0B0FD434805F0E5FE0021E7
:102CF800012006F0D1FA0A2006F050FA0121084610
:102D080006F0CAFA0A2006F049FA464800F044FDDF
:102D180060BB1621444807F097FD374805F0CCFE04
:102D28004721424807F090FD334805F0C5FEFEE70D
:102D38002B6822789B1B82B1B3F5FA6F3FF604AF7C
:102D480007F000FEEFE62B6822789B1B5AB1B3F51B
:102D5800FA6FB3D807F0F6FDA2E74345F0D9F3E6DA
:102D680006F01CFAAAE74345F4D9A7E7132130482F
:102D780007F06AFD204805F09FFE9FED2E0A2948BE
:102D880000F04EFFB8B913212B4807F05DFD1A4833
:102D980005F092FEFEE71521284807F055FD164874
:102DA80016B0BDE8F04705F087BE159E002E7FF4EB
:102DB800FBAE06AF1AE70D21214807F045FD0221B9
:102DC8000D489FED070B05F087FE0B4805F074FED4
:102DD80000221721134816B0BDE8F04700F05EBF87
:102DE8000000000000988C40502F0020872F002002
:102DF800862F0020DC0E0020D81100208824002017
:102E0800080F00201C0F00208C24002070080020D0
:102E1800CC0800204C080020490100005D08000093
:102E28002C0F0020D82D0020440F00205C0F00201C
:102E3800A40F002000C06444B80F0020F00E00204A
:102E4800CC0F0020602F0020F4050020181C002063
:102E58007B6D002B7FF4EDAEEFE638469047ECE64D
:102E68007B6D002B7FF400AF01E73846984707E7F2
:102E780030B50E20C7B005F0C1FF04460A214F48FF
:102E880007F0E2FC21464E48002505F009FE4C48B3
:102E980005F012FE4FF47A7006F080F90F214948C8
:102EA80007F0D2FC464805F007FE474B474C0DF1AA
:102EB800080CB3F900E00EF101021A800FCCACE85F
:102EC8000F00236870460A220DF11501CCF8003076
:102ED8000BF0BEF908213E4807F0B6FC02A80BF03B
:102EE8004FFD014602A807F0AFFC354805F0E4FDA8
:102EF8000A2138488DF81B5007F0A6FC304805F029
:102F0800DBFD0A2006F04AF9142202A9324800F033
:102F1800DBFB2121314807F097FC294805F0CCFD5F
:102F28000A2006F03BF92C4800F08CF9FB23142109
:102F38002B488DF8073007F087FC214805F0BCFDC9
:102F48002A464FF47A71244800F0B6F920B30DF1FF
:102F58000702214807A900F011FD30B30B212148D1
:102F680007F072FC07A80BF00BFD014607A807F055
:102F78006BFC134805F0A0FD06211B4807F064FC14
:102F8800154800F04BF901460D4805F089FD0C483D
:102F980005F092FD47B030BD2521144807F054FCD8
:102FA800074805F089FD47B030BD0E21104807F0ED
:102FB8004BFC034805F080FD47B030BDE00D002014
:102FC800D8110020EC0D00206C2F00209C0E002052
:102FD800FC0D0020080E0020D82D0020140E002023
:102FE800380E0020500E00205C0E0020740E0020C9
:102FF800640E002010B504464FF4987106F0E8FA04
:10300800204610BD10B50B4C00220B4B0A21204660
:1030180000F07AFC094A0A49204607F0A1FE09494E
:10302800094800F0D7F8054A08490948BDE81040A2
:1030380007F096BED82D0020A82D0020B01500203E
:1030480045010000E8110020F02C0020350900009F
:10305800181C002090F8A32090F8A200101A7047BE
:1030680090F8A23090F8A3209A4205D95A1C03443C
:1030780080F8A220987E70474FF0FF30704700BF5D
:1030880090F8A23090F8A3209A4202D91844807E82
:1030980070474FF0FF307047704700BF0346B0F8E5
:1030A800300178B193F82F21882A03D90122002012
:1030B8005A60704702F1010C01201A4483F82FC1AD
:1030C80082F8A510704700BF38B5B0F830410CB988
:1030D800204638BD90F82F310546C3F18904A24235
:1030E8000DD8144605F1A5002246184406F0D4F977
:1030F80095F82F312046234485F82F3138BD012219
:103108004260EFE7F8B506690446D6F8145115F49D
:10311800706301D0C6F81431A8070BD5D6F8702112
:1031280011043DD50023012184F8A230234484F8FA
:10313800A3109A76EA0710D594F83071F7B194F88D
:103148002E7194F82F31BB4226D97B1C274484F872
:103158002E3197F8A530C6F86031AB050DD594F837
:10316800A30018B1D4F83C3103B198470023A4F860
:10317800A230A4F82E3184F83031F8BDD4F83831B3
:1031880003B19847002384F82E31012384F83031A5
:1031980094F82F31BB42D8D80023C6F86031DCE759
:1031A80094F8A330872BC5D8591CC9B2BEE700BF15
:1031B8000148FFF7A7BF00BFE81100200148FFF74B
:1031C800A1BF00BF281300200148FFF79BBF00BF25
:1031D8006814002000228161C0E90422026282840E
:1031E800704700BF01207047002070478171704709
:1031F80041717047C17270470173704741737047DE
:10320800837B23EA0202114381737047C0797047B8
:10321800007A7047407A7047807A7047008A00B217
:10322800704700BF0079704701717047408A80B2CB
:10323800704700BF808A80B2704700BFC08A80B2E2
:10324800704700BF0379032B08D110B5044607F077
:1032580079FB2379032BFAD0012010BD0120704798
:10326800F8B50B4E37683368DB1B8B420DD20C4622
:10327800054605E007F066FB3368DB1BA34204D272
:103288002B79032BF6D00120F8BD0020F8BD00BF34
:10329800502F002038B504460D4602E007F052FBD7
:1032A80035B923682046DB6898470028F6D038BD32
:1032B800284605F073FFF4E72DE9F0410D4F044669
:1032C8000D461646D7F8008006E02368DB68984765
:1032D80048B907F037FB46B93B682046A3EB08031B
:1032E800AB42F2D30020BDE8F081304605F056FF2E
:1032F800F2E700BF502F0020C36963B103682DE9CE
:10330800F0411B6B0446134E134DB3422F6804D192
:103318000120BDE8F081012070474FF0640809E002
:1033280005F038FD08FB00F005F038FF23681B6B3B
:10333800B342EDD02046984703460A210120002BCE
:10334800E6D02B68E269DB1B9342E9D90020BDE88F
:10335800F08100BF69110000502F00200022FF21DA
:1033680010B4074C0271046042825DF8044B8282FB
:103378004171C17281818273C282C261704700BF8C
:1033880008070020044B1A685166D36D13F4F81F20
:10339800FBD0506FC0B2704788110020704700BF43
:1033A800134AD37C13B3D80704D5906A4FF0E021B1
:1033B800C1F80001990704D5D06A4FF0E021C1F89F
:1033C8000401580704D5106B4FF0E021C1F808013B
:1033D800190704D5506B4FF0E021C1F80C01DB064A
:1033E80004D5926B4FF0E023C3F81021704700BF5B
:1033F8008811002002790346042A10B433D0013A18
:10340800D2B2022A1ED8194951F822409A7958791D
:10341800511E02291CD892000128D2B214BF0721DC
:10342800134902F0080002F0040208B141F000411B
:103438000AB141F080410F48C3E902415DF8044BED
:1034480007F032BD9A790C4C511E58790229E2D9FD
:1034580001280749074818BF0721C3E902415DF859
:10346800044B07F021BD054CD0E700BF94020020B3
:10347800070080008811002040420F000024F4005B
:10348800014807F043BE00BF88110020362900D943
:1034980070479D21014807F021BE00BF8811002018
:1034A80030B482B00C4602AB03E90600C37C002BA3
:1034B80030D072B6C37CDA0708D54FF0E0214569F1
:1034C800D1F880212A408262C1F880219D0708D561
:1034D8004FF0E0218569D1F884212A40C262C1F801
:1034E8008421590708D54FF0E021C569D1F8882112
:1034F8002A400263C1F888211A0708D54FF0E02155
:10350800056AD1F88C212A404263C1F88C21DB0678
:103518002FD462B683689C4235D0224B84609B6965
:10352800214AC3F30111C3F3826352F82110013316
:10353800B1FBF3F2CCB1944227D8B2FBF4F3B2FB5F
:10354800F3F294422CD3B3F5817F20D3174CC46097
:10355800036803220020019918615A6201221C6441
:1035680019661A6102B030BC70479942EFD3531CF8
:10357800E9E74FF0E022416AD2F890310B408363CB
:10358800C2F89031C5E7C468E2E70024DFE7022B00
:10359800FBD9023B5A08140244EA02441C43D6E70A
:1035A8001A46E4E700C00F40380A0020FF7F7F007A
:1035B80008B503460348083393E80600FFF770FF91
:1035C80008BD00BF88110020002310B5064C1A461C
:1035D8001946204600F0B0FB0449054A072321603C
:1035E800C4E9022310BD00BFA82D0020D406002086
:1035F80000093D0001207047FB2070470379012B2B
:1036080010D003680A4AD3F88030934210B50446B4
:103618000AD100220121204600F036FC01230120B6
:10362800237110BD0120704701219847F1E700BFC1
:10363800751500000379052B10B5044614D00368EE
:103648000D4AD3F88030934213D107220121204636
:1036580000F01AFC80224021204600F015FC0523CA
:10366800237101E007F06EF92379052BFAD0207E4B
:1036780010BD05219847E8E7751500000379032B6D
:103688001AD00379042B10B5044611D003680D4AEB
:10369800D3F88030934211D105220121204600F051
:1036A800F3FB00224021204600F0EEFB04232371A7
:1036B80094F82801C0B210BD002070470421984733
:1036C800EAE700BF75150000FB2AF8B51BD80368A8
:1036D800044616460F461B6A98472379022B0CD0DE
:1036E80023682C4AD3F8803093424BD101222046DC
:1036F800114600F0C9FB0223237123682046DB6AC8
:103708009847054610B900252846F8BD00220D2126
:10371800204600F0B9FBE27A0021204600F0B4FB15
:10372800227B0021204600F0AFFB627B002120466F
:1037380000F0AAFBA27B0021204600F0A5FB33463F
:103748003A460021204600F079FC321D222120460D
:10375800D2B200F099FB2379032BD5D023680D4A08
:10376800D3F88030934211D103220121204600F082
:103778008BFB40222046114600F086FB0323284697
:103788002371F8BD022120469847AFE70321204660
:103798009847E9E77515000070B5044600F0E0FAAF
:1037A80038B194F826100546FF2900F083803629A1
:1037B80002D90025284670BD20460E4600F0A6FC1A
:1037C80080220121204600F05FFB0A2005F0E6FC7C
:1037D8000121204600F0FAFA8028EAD194F8260060
:1037E800FF2814D0002105F093FD94F82730FF2B13
:1037F80063D03F4A42F82340002B68D0012B70D099
:10380800022BD6D103223B49F0B205F0BBFD0022C2
:103818000E21204600F038FB00220F21204600F040
:1038280033FB2379022B0CD02368334AD3F880303A
:10383800934252D101222046114600F025FB022373
:10384800237172221D21204600F01EFB74221E21C6
:10385800204600F019FB04222621204600F014FB24
:1038680000222021204600F00FFB082221212046BB
:1038780000F00AFB6C220621204600F005FB80229E
:103888000721204600F000FB00220821204600F016
:10389800FBFA002304224D2184F82931204684F8BC
:1038A800253000F0F1FA8B220921204600F0ECFACD
:1038B800284670BD4FF0FF3682E7104A1378032B75
:1038C8003FF677AF591C84F82730117091E703222F
:1038D8000B49F0B205F056FD99E7022120469847BA
:1038E800A8E703220749F0B205F04CFD8FE700BFB7
:1038F800D42900208D1B0000751500007B2F0020A7
:103908006D1B00007D1B000038B515461A4604469D
:1039180000F04CFA094A0023FF21204622600122C8
:1039280084F8265084F8283184F82C3184F827103C
:1039380084F82B2184F8253038BD00BFF00800201A
:10394800EFF3108272B6BFF35F8FBFF34F8FBFF3F1
:103958006F8F002380F8283180F8283082F3108890
:10396800BFF35F8FBFF34F8FBFF36F8FBFF35F8FCF
:10397800BFF34F8FBFF36F8F704700BF03682DE908
:10398800F0412E4E0446DD6888461746B5424FD1B1
:103998000279032A48D00279042A10D0D3F880305B
:1039A800274A934247D105220121204600F06CFAAC
:1039B80000224021204600F067FA0423237194F87E
:1039C8002851EDB285B3B8F1000F27D037B3EFF324
:1039D800108672B6BFF35F8FBFF34F8FBFF36F8F41
:1039E80094F828303A78033B934204DC94F8282072
:1039F800043AD2B23A70404604F12D0105F04CFD6C
:103A080086F31088BFF35F8FBFF34F8FBFF36F8FBD
:103A1800BFF35F8FBFF34F8FBFF36F8F2046FFF762
:103A28008FFF2846BDE8F08100252846BDE8F081D3
:103A3800A8470546C6E704219847B4E7FD150000E6
:103A48007515000070B50446122100F0BFF91C215D
:103A58000546204600F0BAF9FF2212210646204604
:103A680000F012FA2379042B35D02379042B43D0A4
:103A78002379032B0ED02379052B23D0FF22122183
:103A8800204600F001FA2046FF221221BDE87040CE
:103A980000F0FAB92A07EED5E38A01339BB2E38234
:103AA8002379022BEAD023684E4AD3F88030934218
:103AB80040F0948001222046114600F0E5F90223E7
:103AC8002371DBE76B07D9D505F001052576237946
:103AD800022BE8D1D2E715F0A00F05D194F82B31CD
:103AE800002BC2D07006C0D4638A204601339BB233
:103AF8006382FFF725FFC1E76906B9D51321204680
:103B080000F064F910210546204600F05FF90D2108
:103B18000246204600F0B8F92B4604F1290200219C
:103B2800204600F023FA1921204684F8285000F096
:103B38004DF91A2140B20028B8BF0330831020463F
:103B480084F82A3100F042F994F92A3100B2002BA6
:103B580020823EDB238A24491BB21B0181FB0321FF
:103B6800DA170B44C2EBE3031BB2238294F8293122
:103B780013BB238AA43B1BB2238294F82830032B5F
:103B880014D994F82A3094F8290094F82B10E0718D
:103B980094F82C202372A3796172A2728BB9E3790D
:103BA80062799A420DD0E379FF2B0AD094F8283134
:103BB800002B3FF463AF8AE7238A9D3B1BB2238225
:103BC800DBE7A38A012213449BB2A38284F828214D
:103BD800ECE7228A13441BB22382C7E7022120465E
:103BE800984767E77515000089888888024B186828
:103BF80008B1FFF727BF7047D4290020024B586847
:103C080008B1FFF71FBF7047D4290020024B9868FE
:103C180008B1FFF717BF7047D42900200000000043
:103C2800B7EEC06A06219FED187B9FED195B38B58A
:103C380026EE076B04462DED028BB0EE408A86EE29
:103C4800057BFCEEC77B17EE905AC5F3074200F0E0
:103C58001BF9C5F307220721204600F015F90821B2
:103C6800EAB2204600F010F9DFED0B7A0120B4EE3D
:103C7800E78ABDEC028BF1EE10FAACBF03460023D5
:103C880084F8293138BD00BF0000000080842E412F
:103C98000000000080844E4000C0424438B505460C
:103CA80080F8252012BB14290CDD8F2407224D2112
:103CB800284600F0E9F8224628460921BDE83840A0
:103CC80000F0E2B8012920DD112920DC8C1E64F007
:103CD8007F04E4B204224D21284600F0D5F822469C
:103CE80028460921BDE8384000F0CEB881F3040227
:103CF800092142F07002D2B200F0C6F82846042228
:103D08004D21BDE8384000F0BFB88024E2E74C1FE1
:103D180064F07F04E4B2C9E7704700BF704700BF92
:103D2800704700BF704700BF704700BF41717047C0
:103D380081717047017170478371024B0171427143
:103D480003607047A0060020002190F8240005F0C9
:103D5800A3BA00BF012190F8240005F09DBA00BF66
:103D680010B50446006A0368DB68984794F8240095
:103D7800FF2802D0012105F0CBFA23680A4ADB6F3D
:103D8800934209D1012194F8240005F085FA6420B2
:103D980005F004FA012010BD20469847642005F07C
:103DA800FDF9012010BD00BFD51C000070B5044608
:103DB8000E461546FFF7D2FA034B204684F82460D6
:103DC8002562236070BD00BF1806002070B5044648
:103DD8000D46EFF3108672B6BFF35F8FBFF34F8FB8
:103DE800BFF36F8F006A244A03681B6A934235D178
:103DF8002368224A9B6F934236D1002194F824000D
:103E080005F04AFA206A05F07F0103681B689847A5
:103E1800206A002103681B6898472368184A0546EA
:103E2800DB6F934225D1012194F8240005F034FA80
:103E3800206A144A03685B6A934218D186F3108893
:103E4800BFF35F8FBFF34F8FBFF36F8FBFF35F8FEA
:103E5800BFF34F8FBFF36F8F284670BD9847236815
:103E6800064A9B6F9342C8D020469847CAE79847AE
:103E7800E4E720469847DBE7A11C0000C91C0000C6
:103E8800D51C0000A51C0000F8B506460C461746D0
:103E9800EFF3108572B6BFF35F8FBFF34F8FBFF399
:103EA8006F8F006A2A4A03681B6A934242D13368BB
:103EB800284A9B6F934243D1002196F8240005F0CD
:103EC800EBF9306A44F0800103681B689847336A4D
:103ED800394604461A681846136898471E4B1F4906
:103EE80048681A681E4BA3FB0232920C4B681B1AD7
:103EF8009A42FBD833681B4ADB6F934225D10121D4
:103F080096F8240005F0C8F9306A174A03685B6A16
:103F1800934218D185F31088BFF35F8FBFF34F8F9B
:103F2800BFF36F8FBFF35F8FBFF34F8FBFF36F8FF9
:103F38002046F8BD98473368064A9B6F9342BBD02A
:103F480030469847BDE79847E4E730469847DBE7AF
:103F5800A11C0000C91C000084110020001000E012
:103F680083DE1B43D51C0000A51C00002DE9F04191
:103F780005460F4614461E46EFF3108872B6BFF387
:103F88005F8FBFF34F8FBFF36F8F006A274A0368B5
:103F98001B6A93423CD12B68254A9B6F93423DD1C3
:103FA800002195F8240005F077F9286A07F07F01C9
:103FB80003681B68984707464EB12644286A0021C3
:103FC80003681A68904704F8010BB442F6D12B68CD
:103FD800184ADB6F934226D1012195F8240005F099
:103FE8005BF9286A144A03685B6A934219D188F31B
:103FF8001088BFF35F8FBFF34F8FBFF36F8FBFF38F
:104008005F8FBFF34F8FBFF36F8F3846BDE8F081E6
:1040180098472B68064A9B6F9342C1D02846984719
:10402800C3E79847E3E728469847DAE7A11C00006A
:10403800C91C0000D51C0000A51C00002DE9F0419A
:1040480005460F4614461E46EFF3108872B6BFF3B6
:104058005F8FBFF34F8FBFF36F8F006A274A0368E4
:104068001B6A93423BD12B68254A9B6F93423CD1F4
:10407800002195F8240005F00FF9286A47F080011F
:1040880003681B689847074646B12644286A14F80F
:10409800011B026812689047B442F7D12B68194A8D
:1040A800DB6F934226D1012195F8240005F0F4F83E
:1040B800286A154A03685B6A934219D188F3108805
:1040C800BFF35F8FBFF34F8FBFF36F8FBFF35F8F68
:1040D800BFF34F8FBFF36F8F3846BDE8F081984725
:1040E8002B68074A9B6F9342C2D028469847C4E77B
:1040F8009847E3E728469847DAE700BFA11C000085
:10410800C91C0000D51C0000A51C0000006A034A59
:1041180003689B6A934200D170471847A91C0000A6
:1041280070B500F1240384B08C46044601AD1646F0
:1041380093E8070085E807004FEA4C122946206AF1
:1041480001F068FB012806D132462946206A01F0B1
:1041580045FB04B070BD002004B070BD10B5044626
:1041680000F0BAFD002384F8313084F8333010BDF4
:1041780038B514460D46002200F12401006A01F00A
:104188002DFB034620B1428901202A801B89238008
:1041980038BD00BF38B514460D46002200F1240191
:1041A800006A01F01BFB034620B1C28901202A8066
:1041B8009B89238038BD00BF38B50D4690F8311073
:1041C80009B1002038BD382204460AF04DFB01230E
:1041D80040222562184684F8333084F8312038BDEF
:1041E800F0B40D460978202903D115F8014F202C89
:1041F800FBD0156095602C782F2C11D084B16E1CE3
:104208003C2C1D4F35462AD8212C12D804F1FF3CEE
:10421800BCF11E0F16D80020F0BC704715F8014FEE
:10422800202CFBD02F2CF9D01D601146F0BC01F0DA
:10423800C3B9A4F1220C5FFA8CFC27FA0CFC1CF021
:10424800010FE8D12E2C01D0202C0DD116F8014BEE
:10425800002CE5D02F2CE3D03C2C3546D4D95C2C4F
:10426800D9D003D97C2CD6D09660EFE73E3C012C00
:10427800FAD80020F0BC7047012100052DE9F04F65
:1042880090F8333083B00546DC0774D558060F46DE
:10429800904640F1B080D5E90023D5E9041018EB29
:1042A800020443F10003A14270EB0303C0F0A980AC
:1042B800B8F1000F5BD0464605F11809D5E9003280
:1042C800D5F820A0DAF838441C40C4F3080B002CB9
:1042D80070D1134370D195F831305A064CBFDAF8D3
:1042E8003424EA69AA619AF84504023ADAF82C14E7
:1042F800630A824001EB54211144BBF1000F45D100
:10430800B6F5007F42D3DAF81C2291423ED0B6F5CA
:10431800806F58D34FF0010B0BFA00FBABEB030B8C
:10432800730A9B4528BF9B4691424FEA4B240AD803
:1043380001EB0B039A4206D20AF50470019103F0CF
:104348001BFE0199B8B1DAF814025B460268D2F88C
:1043580014A03A46D04770B123462744D5E9001245
:104368005B1842F10002361BC5E90032A8D140466D
:1043780003B0BDE8F08F95F832304FF0FF3043F0CE
:10438800020385F8323003B0BDE8F08FCBF5007436
:1043980000220AF50470B44228BF344603F018FE20
:1043A8000028E8D000EB0B012246384605F074F8E7
:1043B8002346D2E7AA6996E795F833305B060ED50F
:1043C800AA6901328EE7DAF814023A4603681B69D3
:1043D80098470028CFD04FF400731C46BDE74A46E3
:1043E8005046A96901F058FA0028C4DB0CD0D5F86A
:1043F80020A0AA6977E795F8313019077FF558AFFB
:1044080049E7A1EB020853E795F8313013F0500F54
:10441800B1D0A8EB06084046AAE700BFF0B583B0C4
:104428000122044685690DF10701D0E90067FFF70D
:1044380025FF0128A5610CBF9DF807004FF0FF304C
:10444800C4E9006703B0F0BD2DE9F04F1F4690F8AE
:10445800313083B00446D0F81880002B51D016466E
:10446800D0E9001CBC4508BF91425CD056EA07025F
:104478004DD01D0704D5D0E90402B042BA4140D35B
:1044880094F83320751ED4F820A0019247F1FF302C
:104498009AF845240932D2B2C2F1200ED540A2F1D1
:1044A800200900FA0EFB20FA09F045EA0B0505433E
:1044B8000198400633D4481E20FA02F24CF1FF302E
:1044C80051EA0C0C00FA0EFE20FA09F042EA0E023C
:1044D80042EA000201D0954229D25B064CBFDAF8C5
:1044E8003434E369A36104F1180906E0A169013DC8
:1044F800206A01F0D1F9002803DD4A46002DF5D1E4
:1045080007E00020C4F8188003B0BDE8F08F00234E
:1045180083610120C4E9006703B0BDE8F08FE36957
:104528002B44A361F5E7012003B0BDE8F08FAD1A75
:10453800D9E700BF2DE9F04F174690F831208FB02A
:104548000546002A40F0D7808B4691F8311011F0CB
:10455800500F00F0D08003F003019A46032900F0C1
:10456800CA80013103F0080041EA00030293002FDA
:1045780000F0CB80396901F10E08B649A1FB081893
:10458800DBE900104FEAD808014308F102085FFA96
:1045980088F805D000200021CBF81820CBE90001CD
:1045A8000024029B264643F040030393202206A9D9
:1045B8005846FFF763FE00B3202840F09C809DF921
:1045C80018209DF81830002AC0F2A28034B9DBF810
:1045D8000020A2F12009DBF818200192444501D2FD
:1045E8000134E4B2002B00F01381202206A95846BA
:1045F8000026FFF743FE0028DED11AF4007F7AD0A8
:10460800029B9B0777D5002F75D0444517D2DDF85C
:1046180004A0202206A95846FFF730FE631C002894
:1046280061D0202867D12CB9DBF80020DBF818A06E
:10463800A2F12009DCB2A045EBD8CDF804A03822BD
:10464800002128469BF833400AF00EF9DBF82030A9
:10465800C4F38014019A2B620823002685F82C40A5
:1046680085F831303B68C5E909297B60BE81B8F11E
:10467800000F33D008F1FF39B346DFF8DCA15FFA49
:1046880089F9012259462846FFF74AFD044690B3A6
:1046980090F90020002A2EDB202200210AF0E4F8FD
:1046A800002E00F0BC80BBF1010F00F0D780C123C1
:1046B800A3461E3404F81E3CBB8938461BB9D7E90B
:1046C80001239A4205D003F0C1FC2BF8020FA34541
:1046D800F2D101365FFA86FBD845D2D8284600F0D9
:1046E800FBFA06460DE05846DBF8186000F024FB9C
:1046F800002840F0918000231E4685F8313085F867
:10470800333030460FB0BDE8F08F4FF0030847E76D
:1047180056BB444538BF0024852B7FF447AF31464C
:104728003822284601260AF09FF89DF81C209DF89B
:10473800193085F8303002F03703D20658BF43F0FD
:10474800080385F83130DBF80030DBF82020203B07
:104758002A62DBF81820C5E909239BF83330C3F334
:10476800801385F82C3021E7C02B28D0C12B7FF48B
:104778003CAF3A4606A9284600F092FEE8B1BB894C
:10478800DBB9D7E901329A4217D11AF4006FB2D1D6
:104798001AF4884F70D195F8333098076CD41AF40E
:1047A800806FA8D11AF4804FABD02846D5E90423EE
:1047B800FFF74AFE0028A4D19DE70646F6E6029BCD
:1047C80085F833309DF819309B0702D5039B85F88F
:1047D80033300B9BEB61DDE90823C5E90423DDE9F0
:1047E8000C23C5E90223002FCFD04FF000033A690C
:1047F800BB813B687B609DF81B309A427FF4F5AE25
:10480800BE8ABDF81C30F61AB6FA86F67609CDE6E9
:10481800002F7FF4F2AE6EE7CBF818600BE7852324
:10482800237085F8309084F80190DAF80030002B76
:1048380046D00DF113020DF1160105A89847BDF8F1
:1048480014306381BDF8163023819DF81330237529
:104858003FE700BF8988888898290020C02384F80A
:1048680001B02370029B63F07F0385F833303B6906
:10487800E370BB8AA3802CE795F83130D9063FF561
:104888003AAF13F001017FF436AF1AF4806F89D084
:1048980095F8332092077FF52EAF002B3FF42BAF0E
:1048A800D5E90032134304D000220023A961C5E9E9
:1048B8000023284600F042FC00283FF41CAF20E704
:1048C80045F621036381E381638202E72DE9F04322
:1048D800002597B0994690F8313001921495ADF8BB
:1048E8001450002B3ED191F831300F4613F0500F81
:1048F80038D01378044616462F2B37D04FF00008CF
:1049080001AB02AA31462046FFF76AFC50B3019E6C
:104918003378002B3ED0002302AA39462046FFF701
:1049280009FEF8B1A44608AD04F13007DCF8000030
:104938000CF1100C5CF80C1CAE465CF8082C103519
:104948005CF8043CBC45AEE80F00EFD1DCF8000091
:1049580008AF2860204600F0BFF984F8318084F859
:104968003380CDE7002017B0BDE8F08316F8011FAB
:104978002F29FBD00196B1B9382220463D6A09F0AB
:1049880073FF012340222562184684F8333084F8E7
:104998003120E8E74B4602AA39462046FFF7CAFD10
:1049A80017B0BDE8F0833822002108A83D6A09F055
:1049B8005BFF012308AF10958DF8533040238DF825
:1049C80051309BE719B101F58961FFF77FBF0846B0
:1049D800704700BF90F8313063B991F8313013F067
:1049E800500F07D00B6813F01F0C03D11346624613
:1049F800FFF7A0BD002070478169F8B50446006A3A
:104A080001B10131012200F00DFE0128054632D91D
:104A180001230146206A1A4600F064FE064650B398
:104A2800A3695BB394F83320510612D5591CA942E7
:104A380018D022F04002E16984F8332005E0206AAA
:104A480000F04CFF3946B0B1A3694F1C99423A4671
:104A5800F5D34FF0FF322946206A00F03FFF50B1EE
:104A6800A16911B93046A561F8BD2A46206A00F04F
:104A780035FF0028F6D100263046F8BD94F83330CB
:104A880043F0400384F83330ECE700BF90F833304C
:104A98009A0736D5C16970B50546A1B900242146E3
:104AA80007E0037803F07F03037095F830308B42FA
:104AB80029D3013401222846FFF732FBE1B200284E
:104AC800EFD1002070BD5B06006A34D590F84534FC
:104AD800D5E902240933013ADBB244F1FF34C3F1CA
:104AE800200CDA40203B04FA0CFC24FA03F342EAD7
:104AF8000C021A430023013200F0F4FD0028CDD146
:104B0800DFE70020704700232C6A85F83130204603
:104B180085F8333003F030FA0028D2D004F5047059
:104B280003F02AFA0028CCD0D4F840040368BDE882
:104B380070401B6A184700F0F1FE0028AED1C0E7AC
:104B480090F83130DB0601D40020704710B5002200
:104B580088B000230446FFF777FC08E020281BD123
:104B68009DF900309DF80020002B15DB32B1202282
:104B780069462046FFF782FB0028EFD194F83330CE
:104B88000822204643F0020384F8312084F83330A9
:104B9800FFF77CFF08B010BD002008B010BD00BFB3
:104BA8002DE9F0414FF0000882B04A4F06464446CE
:104BB800414600223046FFF7B3FA054630B1017886
:104BC800C02969D0C1292BD0852909D096F832305F
:104BD800002043F0010386F8323002B0BDE8F081CE
:104BE80096F8313003F0370383803B6883B10DF1C9
:104BF80003020DF1060101A89847BDF80630AB8104
:104C08002B82BDF80430EB816B829DF803306B7505
:104C1800326A92F8103243F0010382F81032297890
:104C2800A1F185000022B0FA80F0400901E00422D9
:104C3800A95CE303012A02F1010243EA540311FAD1
:104C480083F39CB201D10028F1D11F2AF0D908F1D1
:104C5800010896F830305FFA88F18B42A9D2012218
:104C680006F12401306A00F0B9FD0028AED0356A9B
:104C78004480284603F080F90028A7D005F5047081
:104C880003F07AF90028A1D0D5F8400403681B6A1C
:104C980098470028A1D199E796F8333013F0400FD0
:104CA800437814BF43F0020303F0FD034370D6E9D1
:104CB8000401D6E90732C5E90201D6E902016B61B0
:104CC800C5E9060192F8103243F0010382F8103268
:104CD8002978A5E79829002038B590F8313043B3F2
:104CE80090F93320044690F83330002A0CDB056A2B
:104CF800284603F041F978B994F83230002043F09F
:104D0800010384F8323038BD03F07F0380F8333074
:104D1800BDE83840FFF744BF05F5047003F02CF9EF
:104D28000028E9D0D5F8400403681B6A9847002892
:104D3800E2D0012038BD00BF70B590F8313005468B
:104D48005A064CD480682B6AD3F83C341844B0F126
:104D5800806F01D3002070BD2846FFF74DFE002864
:104D6800F8D0286A0024AE6990F84534023E9E4087
:104D7800D0F82C341E443119052200F50470013492
:104D880003F026F94FF4007200210028E2D009F060
:104D98006BFD286A012390F8452493409C42EAD38E
:104DA80095F831305B0615D495F8332062F07F0210
:104DB800D5E9023185F83320D0F83C249B1841F11D
:104DC8000000AB60D5E90431E8609B1841F10001AF
:104DD800C5E904312846BDE87040FFF77DBF006A89
:104DE80000F0A2FEAFE700BF70B5044690F83100AE
:104DF8009CB0002310F0180F0C931A9303D0206A6C
:104E08000B6A984202D000201CB070BD40F6012306
:104E18006846FFF75BFD0028F5D0A44604F130068C
:104E28000EADDCF800000CF1100C5CF80C1CAE4662
:104E38005CF8082C10355CF8043CB445AEE80F006B
:104E4800EFD1DCF8000009AA04F1240328609DF8DA
:104E5800305007CA83E8070094F83330204684F8B6
:104E6800305063F07F0384F83330FFF735FF0028B4
:104E7800C9D00021022208230EA815918DF86B20B5
:104E88008DF86930FFF702FEBEE700BF38B591F82C
:104E9800313013F0500F02D10025284638BD40F6B6
:104EA80002230446FFF746FB0028F5D010232046CE
:104EB80084F83130FFF740FF05460028ECD0A1699F
:104EC800002200232046E161FFF7BEFAC12294F8D0
:104ED800313084F83320002BDFD04123204684F87A
:104EE8003330BDE83840FFF75BBE00BFF0B50025A2
:104EF80097B01F4690F831300192ADF814501495D0
:104F0800002B46D191F831300E4613F0500F40D0A7
:104F18001378044611462F2B3ED001AB02AA204637
:104F2800FFF75EF9002834D0019B1B78002B41D095
:104F3800002302AA31462046FFF7FCFA30B947B3EE
:104F480002AA31462046FFF7A1FF10B3A44608ADD8
:104F580004F13006DCF800000CF1100C5CF80C1CB5
:104F6800AE465CF8082C10355CF8043CB445AEE855
:104F78000F00EFD1DCF8000008AE28602046FFF7EC
:104F8800EDF8019901AB02AA2046FFF729F900289C
:104F9800CAD1002017B0F0BD013101910B782F2B39
:104FA800FAD0316A08A8FFF707F90028F1D001996B
:104FB80008AEB2E702AA31462046FFF767FF17B0EE
:104FC800F0BD00BF2DE9F04F0E4690F8311083B0C8
:104FD80009079DF830B09DF834909DF838809DF809
:104FE8003C7040F18580A2F2BC7294B27F2C7FD8CD
:104FF8005A1E0B2A7CD80BF1FF321E2A78D8B8F13A
:105008003B0F98BFB9F1170F8CBF4FF0010A4FF053
:10501800000A3B2F88BF4AF0010ABAF1000F67D196
:1050280005460193FFF758FE002861D0019B5146C1
:105038004BEA431B7B0817F001074BEA4424D3468D
:1050480043EA481818BF6427A4B248EAC92806F0FA
:1050580001091FFA88F800222846FFF761F800289E
:1050680046D090F800C0BCF1850F45D00CF1400344
:10507800DBB2012B3CD8ACF185010023B1FA81F1F8
:10508800490902E0042310F803C04FEACB32012B90
:1050980003F1010342EA5B021CFA82F21FFA82FB67
:1050A80001D10029EED11F2BEDD90AF1010A95F89B
:1050B80030305FFA8AF18B42CDD2012205F124010A
:1050C800286A00F08BFB98B12C6AA0F802B0204641
:1050D80002F052FF60B104F5047002F04DFF38B1E0
:1050E800D4F8400403681B6A03B0BDE8F04F1847C2
:1050F800002003B0BDE8F08F95F831302A6A03F03C
:105108003703838092F8103243F0010382F810329B
:10511800B9F1000F02D0A0F810804482B20703D57D
:105128000775A0F808804481730703D54775A0F870
:105138000C80C48190F800C09DE700BF90F8333020
:105148009A0762D570B5C56982B00446A5B313F055
:10515800400634D0006AA26890F845C4013AE16874
:105168000CF1090C41F1FF315FFA8CFCCCF1200EF7
:1051780022FA0CF2ACF1200C01FA0EFE21FA0CFC1A
:10518800A16942EA0E0242EA0C02013219B3013D5A
:105198006D1A01312A44019172BB63F07F032046E6
:1051A80094ED007B84F8333084ED027B84ED047B3E
:1051B800FFF792FD02B070BD012002B070BD816999
:1051C80061B90195C1612946206A00F0A7FBC8B101
:1051D80094F83330E1E70195E161DDE701AA006A5F
:1051E800019600F059FB00280CDB10D1019D002D21
:1051F800E9D194F83330D0E70023019900F072FA2E
:105208000028E5D1002002B070BD002070474FF0A3
:10521800FF32A169206A00F061FB0028E6D1F1E7BE
:105228002DE9F04390F8333083B004469D0740F1F0
:10523800A18091461A070E4600F19580B9F1000F3A
:1052480000F0288123684D46206AA169D0F83824E7
:1052580002EA0308C8F30807B8F1000F40F0948089
:10526800002900F0D48094F833305B0640F1EC80DC
:1052780090F845C4D4E902320CF1090C013B5FFAFD
:105288008CFC42F1FF32CCF1200E23FA0CF3ACF186
:10529800200C02FA0EFE22FA0CFCE26943EA0E0325
:1052A80043EA0C031344994280F0D5800131A1618F
:1052B80090F845240239D0F82C3491401944B5F5BA
:1052C800007FC0F08A80B5F5806FC0F0A68001230A
:1052D80093406A0AA3EB0803934228BF1346D0F809
:1052E8001C228A424FEA432809D35F18BA4206D2E1
:1052F800002280F810224FF0FF32C0F81C22D0F8AC
:10530800140232460768BF6AB84798B34346464412
:10531800A5EB0805D4E90072D4E90401DB1942F1D0
:10532800000298429141C4E9003207D294F8331040
:1053380061F07F01C4E9043284F83310002D83D171
:10534800D4E9020198429141C0F09680534B1B6802
:10535800002B00F09D8094F83330484663F07F03BB
:1053680084F833300DE0D0E90423FFF76DF8002806
:105378007FF464AF94F83230002043F0010384F8DE
:10538800323003B0BDE8F08390F8452402394FEA83
:105398005828D0F82C34914041441944002F8ED01D
:1053A800C7F50078012200F50470A84528BFA84673
:1053B80002F00EFE0028DDD038444744424631460C
:1053C80004F06AF8B7F5007F206A9FD100F50470F1
:1053D80002F0D2FD002899D1CCE762686369009297
:1053E8000193226923689342DDE900239A4112D28E
:1053F800012200F5047002F0EBFD0028BAD02A461D
:1054080031463844A84604F047F82B467FE7E1695F
:1054180049B3A1614CE70522EBE7D0F81C328B4277
:1054280006D1002380F810324FF0FF33C0F81C3249
:10543800D0F81402324603685B6A9847002899D06E
:105448004FF40073984662E704F1180200F024FA5A
:1054580000288FDB04D12046FFF7CEFA002889D038
:10546800A169206A24E72046FFF7C6FA002881D000
:10547800A169206AE1611BE794F833104846C4E942
:10548800023261F07F0384F8333003B0BDE8F08363
:10549800484676E7D4E9003252E700BF9829002051
:1054A8002DE9F0410C46154601F11E08AB89284646
:1054B80034F8027F1BB9D5E901239A420ED002F0D5
:1054C800C5FD02F087FE0646384602F083FE864296
:1054D80009D14445EAD10120BDE8F081B7FA87F047
:1054E8004009BDE8F0810020BDE8F0812DE9F04FCA
:1054F80090F8313083B08846002B4FD090F8303088
:105508000746012B53D9013A0B464FF0020A0024F3
:105518008E18DFF8A0B00022514638460193FEF7F6
:10552800FFFD00283AD00278C12A37D1054600F19C
:105538001E09019B35F8020F24B300F5105292B2F0
:10554800B2F5806F2AD20BEA8424C0F30900204305
:1055580000F580301946324602F09EFD0346E8B158
:1055680000244D45E6D10AF1010A97F830205FFA88
:105578008AFA5245CFD2A3EB08009846002388F850
:1055880000300FE000F5205292B2B2F5006F02D35E
:105598000028DFD1EFE7B2F5806F06D30023184665
:1055A80088F8003003B0BDE8F08F0446D9E7002042
:1055B800E4E700BF00FC0F0070B50C4600234FF66F
:1055C800FF75226819461E46A3812361626017E0B1
:1055D80002F03CFDA84222D002F0FCFD2369F20350
:1055E800A189013342EA5602060A236152FA80F081
:1055F80083B2C0F34E0040EAC33016FA80F086B298
:1056080020460029E4D1D4E901239A42E0D1206957
:10561800A6820138FE288CBF0020012070BD002022
:1056280070BD00BF2DE9F84F07468A46914600290C
:1056380042D0A1F10208D7F83034434542D908F0E6
:1056480007030125C8F3C80B9D40EDB24646444602
:10565800D7F82C140022384601EB143102F0B8FCBC
:10566800E8B10BF1FF3B834400F2FF101BF8011F68
:105678000AE04A452BD0A04510D0D7F83054A542AF
:1056880014D913F0FF050CD0013429424FEA450321
:10569800A4EB0602EDD0A0452646EED10120BDE8D8
:1056A800F88F58454FF00105E0D101E00026344657
:1056B80001254FF0000BCBE7D0F82084D7F8303421
:1056C8004345BCD84FF000080125C346BEE7BAF1F0
:1056D800000F04D1B9F1010F08BFC7F82064B01C4E
:1056E800BDE8F88F2DE9F8438046881E15461E460A
:1056F8008318D8F83024934237D8CEBBD8F8203452
:10570800834288BFC8F8200400F007030124D8F8B2
:105718002C74C0F3C8099C4007EB1031E4B2012295
:1057280040468F1802F054FCF8B109F1FF3E864458
:1057380000F2FF101EF801CF1CEA040F8CEA040CDB
:105748004FEA440414BF01220022B2420DD0013DA9
:105758008EF800C018D014F0FF04EDD17045A146B2
:105768004FF00104E6D13946D9E70020BDE8F883B7
:10577800D8F820148B42C7D98142C5D3934228BF99
:105788000023C8F82034BFE70120BDE8F88300BF34
:10579800F8B5D0F8303401338B4201D20020F8BD7F
:1057A80007460C4600F50476002505E0D7F83034A6
:1057B80001350133A342F1D3D7F82414002230462F
:1057C80001EBD41102F004FCA4000028E6D0C4F3D5
:1057D80008040459631CE9D1681CF8BD38B50C46A7
:1057E8000B6890F845C400F50470D0F82812023B05
:1057F800656803FA0CF3294003EB5123D0F81C1217
:10580800194402F0E5FB18B16368C3F308031844B0
:1058180038BD00BF2DE9F8430C46D0F83834496844
:105828000B4011446160134490F8451401F10902DA
:10583800D2B2D3402BB380465D1E00F5047905E053
:105848002368013D03F1010323601AD3267A002E51
:10585800F6D1D8F8303432462768484601339F429B
:1058680012D8D8F8241401EBD71102F0B1FBBF000D
:1058780050B1C7F30807C3595A1C09D0013D23602A
:10588800E4D20120BDE8F8834FF0FF30BDE8F8838B
:105898003046BDE8F88300BF38B5D0F8303401335E
:1058A8008B4202D24FF0FF3038BD0C46D0F824149A
:1058B800154600F50470002201EBD41102F088FBB4
:1058C8000028EFD0A400C4F3080403595A1C02D0DE
:1058D80001202B6038BD002038BD00BF01291BD92D
:1058E80038B5D0F830340C4601338B4201D2002051
:1058F80038BDD0F82414154600F50470012201EBD8
:10590800D41102F065FB03460028F0D0A400012062
:10591800C4F308041D5138BD00207047D0F8303456
:105928000133994201D9002070472DE9F04F05460F
:1059380083B00C4600F504790F464FF00008D5F8FF
:105948002414002248464FEAD41B01EBD41102F07C
:105958003FFB90B1A300C3F30803C2580193531C43
:1059680016BF16464FF0000A4FF0010A012C04D961
:10597800D5F830240132944203D9002003B0BDE8A1
:10598800F08FD5F8241401224846594402F020FB30
:105998000028F2D0019B40F80380BAF1000F12D022
:1059A8000134B44208D00023E21B39462846FFF7E9
:1059B80099FE0028E1D03746D5F830340133B34298
:1059C800DBD33446BBE7621C534639462846D21B14
:1059D80003B0BDE8F04FFFF785BE00BF2DE9F843DF
:1059E80000250646D0F82C1400F504782C46002231
:1059F80040464F1C02F0ECFAA8B100F1FF3E04F556
:105A08008059D6F8300405E079B90834844209D2BF
:105A18004C4516D01EF8011FFF29F5D1083408356A
:105A28008442F5D3401BBDE8F883082201231942BC
:105A38004FEA430C18BF0135013A5FFA8CF3F6D1EF
:105A4800E3E73946D3E700BFF8B500234FF0FF3648
:105A580000F504771546C0F84014044641601A461C
:105A6800C0F81412194680F844340370C66080F8F0
:105A78001032C0F81C62384602F0AAFA042D0DD87C
:105A8800064658B1BDB16B1E00EB031393F8BE2157
:105A980012F07F0202D193F8C2310BB90020F8BD91
:105AA80000EB05163846D6F8B651294602F090FAAA
:105AB80006460028F2D005221A49F01C08F082FB9D
:105AC8000028EBD196F86C30092BE7D1336D0146ED
:105AD8002B44C4F82434736DC4F82834B36D2B44B4
:105AE8000125C4F82C34F36DC4F83034336EC4F88F
:105AF800343496F86D20C4F82004204602F10903D6
:105B080084F8452405FA03F35A1EC4F83C34C4F853
:105B180038242A46FFF786FD4023284684F8443473
:105B2800F8BD00BF6805002010B50446D0F834144D
:105B3800FFF72EFE94F845340933DBB2984010BDC8
:105B480070B590F9023082B00446002B0DDBA568D1
:105B580005F1280002F010FA00283BD163780020F4
:105B680043F00103637002B070BD80680122A1692F
:105B7800283002F02DFA0028F0D0A58805F00F058E
:105B88006B0100EB4515C35CE52BE7D023781B07B9
:105B980001D5E369EB61236A15491A0C6B830E681A
:105BA800AA8266B10DF103020DF1060101A8B04702
:105BB800BDF80430BDF806202B836B82EA82A378F7
:105BC800A56803F07F0305F12800A37002F0D4F95B
:105BD8000028C3D005F50E7002F0CEF90028BDD01C
:105BE800286803681B6A98470028B7D0BBE700BF3E
:105BF80098290020024638B552F8105F044680689C
:105C0800294601F037FE50B155B123690135AB4241
:105C1800A37818BF03F0BF0363F07F03A37038BDF8
:105C2800A37843F04003F7E7F8B5047814F02004AC
:105C380004D11A4B054642699A4202D300273846D6
:105C4800F8BDFFF7D7FF07460028F7D0A8682E69E8
:105C58008279023E416996400E440179A9B12146F4
:105C680006E008F001FEA868E1B202798A420BD981
:105C7800314405222830013402F0AAF94FF40072A9
:105C880000210028EDD1D9E782794FF400736969C2
:105C98003846934011FA83F36B61F8BD00FE1F008C
:105CA80010B5044680680A462830A16902F090F9C8
:105CB80020B1A38803F00F0300EB431010BD00BF11
:105CC80010B5037804462BB1FFF73AFF0023237081
:105CD800A37010BD002301202370A37010BD00BF66
:105CE80038B5037805460C4613B1FFF729FFF0B124
:105CF800A8680022A969283002F06AF9B8B1AA8810
:105D080002F00F0200EB421352015D688058996857
:105D1800DA6820606560A160E26018695D69996968
:105D2800DA69206101206561A161E26138BD002066
:105D380038BD00BF30B589B00D4614466946FFF737
:105D4800CFFF28B1BDF81020BDF80E302A8023807F
:105D580009B030BD30B589B00D4614466946FFF725
:105D6800BFFF28B1BDF81820BDF816302A8023805F
:105D780009B030BD0B7813F0700F01D100207047C7
:105D8800F0B540F6022389B00D46044601F0F0F85C
:105D980038B1012210232046A2702370FFF744FF78
:105DA80010B9002009B0F0BD2269237822626BB1D6
:105DB800636933B1A378002223F02003C4E90422E5
:105DC800A3702046FFF7BCFE0028EAD0A068012295
:105DD800A169283002F0FCF80028E2D0B4F804C029
:105DE80010220CF00F0C4FEA4C1300EB4C1C8CF8F3
:105DF8000B20C058A768236A97F806E09E1EDCF8B7
:105E08000410DCF80820DCF80C3006FA0EF6EE4632
:105E1800AEE80F00DCF81000DCF81410DCF81820ED
:105E2800DCF81C30AEE80F007B6907F1280001227E
:105E3800F1184FF02033CDF80130CDF80530ADF82A
:105E4800093002F0C5F884460028AAD02E27EE466D
:105E58008DF800707646BEE80F00CCF80000CCF84C
:105E68000410CCF80820CCF80C308DF80170BEE88E
:105E78000F00CCF81000CCF81410CCF81820CCF88F
:105E88001C302B6A1A0CADF81A30ADF814200FCE5E
:105E9800CCF82000CCF82410CCF82820CCF82C30F2
:105EA8000FCECCF83000CCF83410CCF83820CCF831
:105EB8003C30A46804F1280002F05EF800283FF4A2
:105EC80070AF04F50E7002F057F800283FF469AF80
:105ED800206803681B6A09B0BDE8F040184700BF96
:105EE8002DE9F041002694B0984603780192ADF868
:105EF80014600B96002B41D10B780D4613F0700FF0
:105F08003CD01378044616462F2B3BD0002728E0B8
:105F1800019E3678002E50D001F02AF8034602AAD6
:105F2800294620462BB9B8F1000F27D0FFF722FFEA
:105F380020B3A6460DF12C0CBEE80F00ACE80F000C
:105F4800BEE80F00ACE80F00DEF8005020462378CA
:105F5800CCF800500BB1FFF7F3FD019E0BAD277095
:105F6800A770314601AB02AA204601F04DF906465A
:105F780002AA294600232046002EC9D1002014B0C9
:105F8800BDE8F0810136019633782F2BFAD0AD6841
:105F9800242200210BA808F067FC0D95EB79102B43
:105FA80003D0202B0FD00C2BE8D120238DF82C30D8
:105FB80001230BAD8DF82E30A8E702AAFFF7DAFE11
:105FC80014B0BDE8F0814023F0E700BF2DE9F041AF
:105FD800002594B09846037801920295ADF83850A0
:105FE800002B37D10B780E4613F0700F32D0137890
:105FF800044615462F2B31D000271EE0019D2D7831
:10600800002D40D000F0B4FFA6460DF1080C08B3EF
:1060180066462578BEE80F00ACE80F00BEE80F0022
:10602800ACE80F00DEF800302046CCF800300DB1A7
:10603800FFF786FD019D2770A770294601AB0BAAC3
:10604800204601F0E1F805460BAA31460023204618
:10605800002DD3D1002014B0BDE8F08101350195A1
:1060680029782F29FAD0A9B9B5682422204608F042
:10607800FBFBA560EB79102B03D0202B22D00C2B37
:10608800E8D120221FE043460BAA00F071FF14B0AC
:10609800BDE8F081B6682422002102A808F0E4FBDC
:1060A8000496F379102B03D0202B03D00C2BD1D1DD
:1060B800202300E040238DF80830012302AE8DF83C
:1060C8000A3099E74022012322701846A370C2E7DC
:1060D80019B101F58961FFF779BF0846704700BF1C
:1060E800CB6870B50D46044693B906780EB11846CC
:1060F80070BD8D682422314608F0B6FBA560EB79A7
:10610800102B18D0202B10D00C2B14D0304670BD7B
:106118002422002108F0A8FB01201023A07023707E
:10612800D5E90223A260236270BD402201232270B8
:106138001846A37070BD2022F8E700BF70B5057837
:106148000DB1002070BD0E4604462422294608F0F1
:106158008BFBA660F379102B0BD0202B03D00C2BD4
:1061680007D0284670BD4022012322701846A3702C
:1061780070BD2022F8E700BF2DE9F04F2DED028B0E
:10618800837883B00546DF0740F18C808846017824
:1061980092460E0700F191808C0608D583685A89CB
:1061A8004369C3EB42139BB29A4528BF9A46BAF19A
:1061B800000F00F0AF806A6905F1100388065646A3
:1061C8004FF0000908EE103AAF68C2F3080B3DD54E
:1061D800396A01EB5221BBF1000F51D1B6F5007FAE
:1061E8004ED37A6B91424BD0B6F5806FC0F0828067
:1061F8002878730A800605D43879A0EB0900834211
:1062080028BF034691424FEA43240CD8C81882425B
:1062180009D207F12800CDE9001301F0ADFEDDE950
:10622800001300283ED0F86A026857694246B8470A
:10623800002837D06A69361BA04422446A6169D0B5
:106248002978C2F3080BAF688806C1D497F805907F
:1062580009EA5229BBF1000F36D1B9F1000F33D149
:10626800002A33D14A064CBF3A6A2A6A2A61023A9E
:10627800B8797969824049441144BBF1000FADD027
:10628800CBF50074002207F12800B44228BF344639
:1062980001F09EFE30B100EB0B012246404603F0B0
:1062A800FBF8C7E76B784FF0FF3043F002036B70E1
:1062B80003B0BDEC028BBDE8F08FC36942699B1A3D
:1062C8009A4528BF9A4672E72A69D0E70B0705D591
:1062D800AA78540602D52A690132C7E718EE102AAF
:1062E8003846296901F014FB0028DBDB0CD0AF68C5
:1062F8002A69BCE7F86A424603681B699847002880
:10630800D0D04FF4007495E72B7813F0700FC9D0F4
:10631800AAEB060A504603B0BDEC028BBDE8F08F2D
:1063280070B582B0012204460DF10701D0E9045688
:10633800FFF722FF01280CBF9DF807004FF0FF3040
:10634800C4E9045602B070BD436913F4F07F30B558
:10635800044683B0C3F3431509D0012907D120337C
:106368004361A068383000EB451003B030BD01220E
:106378000DF107012046FFF7FFFE40B2012803D1C7
:1063880063691F336361ECE70020EEE72DE9F04114
:1063980003789AB0002613F0180F0896119606D0C5
:1063A800174683688A6804460D469A4203D000203F
:1063B8001AB0BDE8F081FFF7C3FBA6460DF1440C07
:1063C800BEE80F00ACE80F00BEE80F00ACE80F0015
:1063D800DEF800303246A169CCF80030A36803F13A
:1063E800280001F0F5FD0028E1D0A288EC4694F8D9
:1063F800008002F00F0200EB421E5201DEF804108A
:106408008058DEF80C30DEF80820ACE80F00DEF823
:106418001410DEF81820DEF81C30DEF81000ACE8A6
:106428000F0018F008033A46294640F09B8008A858
:10643800FFF756FD0028BAD0109EBDF8243000257D
:106448000E990122A3809DF82330A068E3700B9B6E
:106458002830A161E3608DF820508DF8225001F0BA
:10646800B7FD0028A3D0A38803F00F0300EB431067
:10647800DDF80D30C0F80D30DDF81130C0F81130FE
:10648800DDF81530C0F81530DDF81930C0F81930CE
:10649800BDF81D30A0F81D309DF81F30C3779DF85A
:1064A8000B30C372002E3BD0A068B31E2A468179F8
:1064B80028308B4050F8141C194401F089FD05461A
:1064C80000283FF474AF006A6F46696AAA6AEB6AEB
:1064D8000FC7286B696BAA6BEB6B0FC73146A068B7
:1064E80001F038FA00283FF462AFA068236A827985
:1064F8002830023B50F8141C93400122194401F043
:1065080067FD064600283FF452AF6D460FCD306256
:106518007162B262F3620FCD30637163B263F36389
:1065280000210222082311A819918DF846208DF820
:10653800443000F0D3FE00283FF439AFA46804F1DA
:10654800280001F019FD00283FF431AF04F50E7062
:1065580001F012FD00283FF42AAF206803681B6A87
:10656800984725E740F601236046FFF72FFD0028EE
:106578007FF463AF1BE700BF0378DA0601D400207D
:106588007047436930B5044683B033B1837800223D
:1065980023F02003C0E90422837000230FE0636125
:1065A800A3686A0138339A5C03EB4513EAB1E52A1C
:1065B80004D02E2A02D0DB7A1B0722D5636913F494
:1065C800F07FC3F3431503F12003E8D101220DF155
:1065D80007012046FFF7D0FD40B2012803D16369C7
:1065E8001F336361DCE763785BB9A3780822204630
:1065F80043F002032270A37003B0BDE8304000F0FE
:106608006DBE002003B030BD2DE9F041037804468B
:106618000769002B39D00D464169A94242D0002DA7
:1066280037D018072AD5E269AA422ED3D4F808C071
:106638006E1EA2789CF8060012F0400F00F10900C7
:10664800C0B226FA00F630D14A1EC24009B19642BD
:106658002FD25B064CBFDCF82030236A236104F19B
:10666800100806E02169013EA06801F051F90028F0
:106678000BDD4246002EF5D1A2780CE09A06D5D55E
:10668800A3685B89B5EB431FF6D900202761BDE8F5
:10669800F0818278056122F0200201206561A270F4
:1066A800BDE8F0810120BDE8F081236A334423610D
:1066B800F1E7B61AD3E700BF2DE9F0410E461546BB
:1066C80000212422044698469DF8187008F0CCF85A
:1066D800B068336A00F13802A58005F00F0502EBB7
:1066E8004512C4E90203D17A0B0711D401F017014E
:1066F8002170D37A13F0180F02D141F008012170EC
:1067080008F00303E770012B38D0022B06D0F3B151
:10671800002318462370A370BDE8F0810323217875
:10672800CD06F5D4CE07F3D408F0080118F4806F2D
:1067380043EA0103A370416B958AA161518B41EA39
:10674800054112D019BB63F07F03A37010E018F461
:10675800806FDDD108F0080343F00103A370416B9B
:10676800938AA161518B41EA03412162D369E361B4
:1067780018F4804F04D10120BDE8F0810223CEE750
:10678800E1692046FFF740FF0028F4D1C0E701F097
:10679800E1F80028BCD0A378D5E700BF0378002B28
:1067A80045D12DE9F0470B7884B00C4613F0700FF3
:1067B80030D04B6913F01F052CD106469046A946E8
:1067C80001220DF10F012046C3F3431A5F09FFF7B9
:1067D800D3FC40B24FEA4A1201281BD16369A16871
:1067E8001F3301F1380C63611CF802200CEB4A1CC2
:1067F80082B12E2A12D0A2F1E500B0FA80F0400949
:1068080060B99CF80B1011F0080E12D00F2907D0B0
:106818000546D5E7002004B0BDE8F0870025CFE79E
:106828005106CDD502F01F059CF80D90C8E7002051
:10683800704785B10CF10A0101E01CF8012F4FEAFD
:10684800CE13614543EA5E0352FA83F35FFA83FE8F
:10685800F3D1CE45DED14346BAB221463046009543
:10686800FFF72AFFD7E700BF03780BB1FFF768B936
:10687800012070472DE9F0470E46017882B00907DC
:106888009DF828709DF82C909DF830A09DF83480D4
:1068980018D5A2F2BC7294B27F2C13D85A1E019359
:1068A8000B2A0FD87A1E1E2A0CD8BAF13B0F98BFB4
:1068B800B9F1170F06D8B8F13B0F03D80546FFF713
:1068C8003FF918B9002002B0BDE8F087A868012296
:1068D800A969283001F07CFB0028F3D0019B4FEA1E
:1068E8005802A98847EA4313F70701F00F0142EA63
:1068F8004A1243EA442300EB41109BB242EAC92200
:1069080048BF4382B40792B208D518F00108038241
:10691800C28118BF4FF0640880F80D80710701D557
:106928000383C282AC6804F1280001F025FB00282B
:10693800C8D004F50E7001F01FFB0028C2D02068F3
:1069480003681B6A02B0BDE8F047184783789B07C5
:1069580027D5036A10B5044682B0ABB1016911BBF3
:10696800019301621946A06800F0F4FFB0B1A37862
:10697800616963F07F032278E161A37022B1204648
:10698800FFF7DEF802B010BD012002B010BD6FF0B5
:1069980070422169A06800F0CDFF68B9002002B0FC
:1069A80010BD00207047002301AA8068019300F001
:1069B800AFFF0028F2DBEAD1019B002BD7D0D1E74B
:1069C8002DE9F047837805469C0777D5884619074F
:1069D800914600F1B5806B6913EB09026ED2B9F1EB
:1069E800000F40D04F464FF0000AA868C3F30806CE
:1069F8002969447914EA53243FD1002E3DD1002956
:106A08006ED0AA78520676D5EA699A4273D90131CE
:106A1800296102398279436991401944B7F5007FA9
:106A280053D3B7F5806F70D303797A0A1B1B93424F
:106A380028BF1346426B8A424FEA432407D35E18A5
:106A4800B24204D24FF0FF3280F828A04263C06AF5
:106A580042460668B66AB04780B36B693F1BA044DC
:106A680023446B61C1D1EA699A4276D2AA78484632
:106A7800EB6162F07F03AB7025E0827902394369EC
:106A8800914019442144002EC8D0C6F50074012253
:106A9800BC4228BF3C46283001F09AFA70B1304415
:106AA80026442246414602F0F7FCB6F5007FA86866
:106AB800D3D1283001F060FA0028CED16B780020BD
:106AC80043F001036B70BDE8F087C6F500746A698E
:106AD800EB69BC4228BF3C469A4205D30522DAE757
:106AE800296A21B3296194E7AB7813F0200F14BF0A
:106AF80005220122CFE705F1100200F009FF002866
:106B0800DCDB24D0A868296983E7436B8B4204D176
:106B18004FF0FF3380F828A04363C06A42460368F9
:106B28005B6A98470028C9D04FF4007495E7284657
:106B3800FFF760F80028C1D02969A868296268E7CA
:106B4800C169FFF761FD00287FF445AFB6E7284625
:106B5800FFF750F80028D5D1B0E7054B1B682BB1DB
:106B6800AB78484663F07F03AB70ACE74846AAE7CA
:106B7800982900202DE9F04F84468DB014461568F9
:106B880098460646894603AF01934FF0000EBCE8CD
:106B98000F000FC7BCE80F000FC7DCF800306560B6
:106BA8003B604346A4F80CE0002B3FD04FF0010AAD
:106BB800A9EB0A0103A889B24901FFF725FD50B3E3
:106BC800002103A8FFF7C0FB074620B300250DE00E
:106BD80001F03CFA8046584601F0FCFA83464046EC
:106BE80001F0F8FA834516D10D2D18D0EAB23946CE
:106BF8003046013500F0FAFBA38983462046002B76
:106C0800E6D1D4E901329342E2D1BBFA8BF04009D4
:106C18000DB0BDE8F08F00200DB0BDE8F08F0AF18F
:106C2800010A019B5FFA8AFA5345C1D20120EFE7B6
:106C38002DE9F04F07468DB016469A460DF10C0C1B
