:0200000460009A
:100000004643464200000156000000000103030081
:1000100000000000000000000000000000000000E0
:1000200000000000000000000000000000000000D0
:1000300000000000000000000000000000000000C0
:1000400000000000010408000000000000000000A3
:100050000000800000000000000000000000000020
:100060000000000000000000000000000000000090
:100070000000000000000000000000000000000080
:10008000EB04180A063204260000000000000000FD
:10009000050404240000000000000000000000002F
:1000A0000000000000000000000000000000000050
:1000B0000604000000000000000000000000000036
:1000C0000000000000000000000000000000000030
:1000D00020041808000000000000000000000000DC
:1000E0000000000000000000000000000000000010
:1000F0000000000000000000000000000000000000
:10010000D8041808000000000000000000000000F3
:100110000204180804200000000000000000000095
:1001200000000000000000000000000000000000CF
:10013000600400000000000000000000000000005B
:1001400000000000000000000000000000000000AF
:10015000000000000000000000000000000000009F
:10016000000000000000000000000000000000008F
:10017000000000000000000000000000000000007F
:10018000000000000000000000000000000000006F
:10019000000000000000000000000000000000005F
:1001A000000000000000000000000000000000004F
:1001B000000000000000000000000000000000003F
:1001C000000100000010000001000000000000001D
:1001D000000001000000000000000000000000001E
:1001E000000000000000000000000000000000000F
:1001F00000000000000000000000000000000000FF
:10020000FFFFFFFFFFFFFFFFFFFFFFFFFFFFFFFFFE
:10021000FFFFFFFFFFFFFFFFFFFFFFFFFFFFFFFFEE
:10100000D10020434D1600600000000000000000E9
:10101000201000600010006000340160000000003B
:10102000000000600040010000000000FFFFFFFF23
:10103000FFFFFFFFFFFFFFFFFFFFFFFFFFFFFFFFC0
:10104000FFFFFFFFFFFFFFFFFFFFFFFFFFFFFFFFB0
:10105000FFFFFFFFFFFFFFFFFFFFFFFFFFFFFFFFA0
:10106000FFFFFFFFFFFFFFFFFFFFFFFFFFFFFFFF90
:10140000814205D051F8043B40F8043B8242F9D8B0
:10141000704700BF044A05494FF0000342F8043BFF
:101420009142FBD8704700BFC0220020003000204E
:101430002DE98848BFF34F8F00BF00BF00BF00BF3A
:1014400000F000FA684B0822C3F8542100BF00BF27
:1014500000BF00BF00BF00BF00BF00BF00BF00BF94
:1014600000BF00BF00BF00BF00BF00BF5F4A6049B0
:101470006048FFF7C5FF604A60496148FFF7C0FF59
:10148000604CFFF7C7FF4FF470004FF0E0210023DE
:101490005D4AC1F8880D44F823200133B02BFAD1FE
:1014A0005A4B80215A4A03F8011B9342FBD14FF05B
:1014B000E0254D4E4FF08039DFF884B1DFF884A18C
:1014C0004FF0FF31C5F8084D0027C6F80491C6F863
:1014D00000B1C6F8F490C6F8F0A0D5F8243DDFF8C6
:1014E000688143F4E0234B4AC5F8243DD8F81C300A
:1014F00023F07F0343F04003C8F81C30D8F82430B1
:1015000023F07F0343F04003C8F824309166D1668E
:101510001167516700F09EF93F4B4049A363404B70
:10152000E36363236B610323AF612B613D4BC5F81C
:10153000203DD5F8FC3D43F08073C5F8FC3D3A4BA7
:101540001A6842F001021A605B680B6000F0CCFB85
:10155000C6F804913548C6F800B1C6F8F490C6F84C
:10156000F0A000F031FDD8F86C10314B314A41F455
:101570004051C8F86C101F60C3F80871C3F81871A7
:10158000C3F82871C3F83871936BDB0708D442F6AF
:101590001563294951651365936B43F00103936308
:1015A000244A264C936843F00113936000F0DAF963
:1015B00000F01EF900F004FD00F0C4FB00F044F957
:1015C0002368132BFCD900F055FC2368B3F5967FF4
:1015D000FBD300F03DF900F039F900F005FD00F013
:1015E0000BFD30BFFDE700BF00800D4058EC000050
:1015F0000822006000000000C0220020640E01608C
:101600000000002000200020DD8F000000E400E04A
:10161000A0E400E000C00A407DA400008C2F002060
:1016200081A4000000002020001000E00046C32339
:101630000040084000400D400000C056902F0020A0
:101640001B1018200C0D111300C00F40054B4FF458
:101650002A01054A05485A641864054A9963954663
:10166000FFF7E6FE00C00A40AFAAAAAA07002000C2
:101670000000072043690A4A03EB011010B4037A03
:10168000084C02EB0313D3E901321460C2681A60FC
:1016900003690BB142691A605DF8044B704700BFE3
:1016A000E80A002061F801004369027E03EB0212A0
:1016B00092F808C08C451CD01A7AFF2A19D09142A2
:1016C00010B5044616D01A7EFF2A06D00121D3E9B0
:1016D000002312681A4201D1217610BD064B052263
:1016E000204603EB0C135B681A60FFF7C3FF2176FB
:1016F000F3E770470021EAE7E80A002043690A4A55
:1017000003EB011010B490F82830084C02EB0313DF
:10171000D3E901321460C26A1A60036B0BB1426BE9
:101720001A605DF8044B7047E80A002061F8010078
:101730004369427E03EB021292F828C08C451ED00A
:1017400093F82820FF2A1AD0914210B5044617D0EA
:1017500093F83820FF2A06D00121D3E9002312682C
:101760001A4201D1617610BD064B0522204603EBDB
:101770000C135B681A60FFF7C1FF6176F3E77047EF
:101780000021EAE7E80A0020164942698B6B23F43E
:101790007C0343F4802370B58B630446124DD2E979
:1017A00000130A681A4303690A60022200211A61C1
:1017B0000E4A19619A6401225A629D624FF43035D3
:1017C000DD624FF001159E6C1E6519629D651A6100
:1017D000017EFFF74FFF617E2046BDE87040FFF7B6
:1017E0008DBF00BF00C00F40B80B05053B3728195F
:1017F000104BA020104AD96E41F4403110B4D96684
:1018000040F23764D96E41F44071D96654649064F3
:10181000936C1B06FCD4094A40F23761A023516443
:101820009364936C13F08003FBD1054A13705DF849
:10183000044B704700C00F4000400C4000800C403B
:10184000BC2F0020704700BF704700BF704700BF2B
:1018500000BF704710B44FF0E0230021102431483E
:10186000C3F8941DC3F89C4D1124C3F8A00D2E4855
:10187000C3F89C4D1224C3F8A00D2C48C3F89C4D0E
:101880002B4AC3F8A00D2B4C42F015022A48C3F88E
:101890009C4DC3F8A00D294C2948C3F89C4DC3F8B2
:1018A000A00D284CC3F89C2D2748284AC3F8A04D0A
:1018B000C3F89C0DC3F8A02D02F5A022244C0C32D5
:1018C0002448C3F89C4DC3F8A02D234AC3F89C0DAF
:1018D000224CC3F8A02D02F14062C3F89C4D204871
:1018E000C3F8A02D0C32C3F89C0DC3F8A02D00BF87
:1018F00000BF00BF00BF00BF0122C3F8942DBFF39B
:101900004F8FBFF36F8FC3F8501FBFF34F8FBFF3DD
:101910006F8FD3F8142D5DF8044B42F44032C3F8B6
:10192000142D70473F000010250008070900100023
:1019300000300020130020002100020714000020C6
:1019400025000813090000101600202027000B13A3
:1019500017000040180000602F000B0719000070EE
:101960001A000080F0B5B84B1822B84E0120B84FCD
:1019700083B0C3F85C62B749C3F86072B64DC3F870
:101980006462A6F53046B54CC3F86862C3F86C5281
:10199000C3F87052C3F87452C3F8785248F20C7509
:1019A000DA661A675A679A67DA67C3F88020C3F85D
:1019B0008420C3F88820C1F82C03A94AC1F8300359
:1019C000C1F83403C1F83803C1F83C03C1F850032F
:1019D000A169A44B0A40A448A4491343A44AA361A3
:1019E000D4F8843043F00C03C4F884304FF0FF3453
:1019F000036843F00203036003682B404FF4005573
:101A00001A439C4B026044608A689B4C13409B4A7B
:101A100043F000538360C36823F07803C360036A14
:101A2000134023430362036A1340954A2343954CB2
:101A300043628262C2620022D1F8B83023F03F03D1
:101A400043F00103C0F8B830D1F8BC308E4923F020
:101A50003F0343F00103C0F8BC3040F2056302616C
:101A600005660467C0F88030456644670224C0F804
:101A70008430036823F0020303608161834B84494F
:101A8000C46143F8042B8B42FBD1774A136843F0BF
:101A900001031360136813F00103FBD17A4802219C
:101AA00040F2F564906140F29940D16140F26641A4
:101AB000C2F8004242F20144C2F810127549C2F85D
:101AC0002002C2F8301240F235417348C2F8344265
:101AD000C2F84012714CC2F8500242F20120704923
:101AE000C2F854120121C2F86042C2F864025E4892
:101AF000C2F8A030C2F8A430C2F8B0104369DA07C7
:101B0000FCD5012300244FF4803257494361C0F8CB
:101B1000A040C0F8A420C0F8B0304B69DB07FCD56A
:101B2000012300244FF400304F4A4B61C1F8A0401C
:101B3000C1F8A400C1F8B0305369DF07FCD5012318
:101B40000024584848495361C2F8A040C2F8A40094
:101B5000C2F8B0304B69DE07FCD5D1F8003145F64C
:101B60000D5221209BB24861934265D100244FF46D
:101B7000802201233C48C1F8A040C1F8A420C1F84C
:101B8000B0304369DD07FCD501234FF40004002188
:101B9000354A4361C0F8A040C0F8A410C0F8B03086
:101BA0005369DC07FCD501234FF400044FF4803067
:101BB0002D495361C2F8A040C2F8A400C2F8B03069
:101BC0004B69D807FCD501234FF400044FF40030D3
:101BD000254A4B61C1F8A040C1F8A400C1F8B0305B
:101BE0005369D907FCD501234FF400042D481E4941
:101BF0005361C2F8A040C2F8A400C2F8B0304B69EB
:101C0000DA07FCD5D1F8003145F60D5221209BB200
:101C10004861934250D008254FF400042249002027
:101C2000224B234A009015705A1A0123214822445E
:101C300000F0CEF903B0F0BD1E4B0022C3E9002234
:101C4000C3E9022203B0F0BD00801F40F9B00100DB
:101C5000F910010000841F40F970010000C00F401E
:101C6000FFFCFF1F000300A000402A4000802A4024
:101C70001200FFFFFF37F7004000008000FFF07CFC
:101C8000FF000F8363000200F05AF05A00422A401E
:101C900000432A409F041830EB06180A3806180A39
:101CA00006320126040003000000007000000070EE
:101CB000BD2F0020CC2D00204FF400044FF48022D3
:101CC00001230848C1F8A040C1F8A420C1F8B030F1
:101CD0004369DB07FCD5012310254FF08074436175
:101CE0009CE700BF00402A40F0B4154A40274FF45B
:101CF00080314FF480564FF400554FF4404443F286
:101D00004200136913F0020F0ED113F4005F0FD0DD
:101D100013F4805F0ED0002BF3DA13F4803F0BD165
:101D20005B060BD5F0BC7047946151619061E8E7A8
:101D30005561E6E75661E4E79161E2E75761E0E764
:101D400000800D403F4A03203F49F3EE095AD2F884
:101D500080304FF0000C9FED3D6A23F001039FEDB2
:101D60003C5A30B4C2F88030C2F89000D1F8E0108C
:101D7000384DCBB2384C39482B6007EE903A0B0DFA
:101D8000C1F30B21F8EEE77A06EE903A07EE101A4F
:101D9000334BB8EEC77A2160F8EEE66A314937EE88
:101DA000C66A37EEC55A76EEC76A77EEE57A26EE52
:101DB000266AC3ED006A25EE265AD2F8803067EE17
:101DC000A64AC0ED007AC6EE275A274885EE276A54
:101DD000C4EEA76A75EE875AFCEEE55A36EE076A3E
:101DE00015EE904ABCEEC66A43EA045376EE877A53
:101DF000C2F8803016EE103AD2F89041FCEEE77A45
:101E000001EA0341214317EE903AC2F89011C3F35F
:101E10000B03D2F890110B431449C2F89031D2F859
:101E2000803043F00203C2F88030114B80F840C08C
:101E3000C1F840314FF0E023012230BCC3F8082143
:101E4000704700BF00810D4000441F400000AA42BF
:101E50000000B4427C2F0020782F0020802F00202B
:101E6000842F00200000FF0F00E400E0002000208D
:101E7000A1910000314B40F6617210B5C3F82021EA
:101E800040F2044400F0A8F82D4A2E49D2F88030E0
:101E90002D4843F00303C2F880302C4BC1F8604159
:101EA00002681A4203D1D1F8A8319A071BD0254AFB
:101EB0004FF00041244B5963D2F8403143F0020304
:101EC000C2F84031D2F840319B07FBD44FF40030C8
:101ED0004FF0E0211C4B4FF00042C1F88C0219205A
:101EE0009A6300F07DF8184A4FF08040154C0021AD
:101EF00090630A20164B11604FF42072C4F8A801B9
:101F0000184600F075F84FF4800203464FF4810044
:101F100040F243111860C4F858311A640D4B0E4A50
:101F2000C4F84811C3F804224FF0E0224FF4003106
:101F30000123C2F80C11C4F8403110BD00800D40DF
:101F400000C00F4000002E4000900D40001C1E00FD
:101F500000000020002000208993000008B50E4BEF
:101F60001B6E9B0700D4FBBE72B60C4B00200C4AC4
:101F7000C3F8400103F160430A49A3F55F231164EC
:101F80009D46BFF34F8F4FF400130748074ADB69A4
:101F900002609B68984700BF00441F4000002E402D
:101FA00000C00A400300200000802020000012EB47
:101FB000F8B500BFF8BC08BC9E46704700000000A2
:101FC0005FF800F01DA500005FF800F02D8800000C
:101FD0005FF800F05DA600005FF800F0F99A0000DD
:101FE0005FF800F01D8B00005FF800F061E7000073
:101FF0005FF800F0B1E600005FF800F0098E000025
:1020000005010000010F0000A92D0000C982000099
:1020100080C00F4000000003190000001000000005
:10202000E8841F4001000000FF000000FF000000E6
:102030000000000000000000180000001000000078
:10204000E4841F4001000000FF000000FF000000CA
:1020500000000000000000001F0000007D140000D0
:1020600070C00F40000C00001100000011000000C3
:10207000E0841F40020000002C000000120000005D
:10208000E0841F400100000010000000110000006B
:10209000DC841F40020000002D0000001200000040
:1020A000DC841F40010000001E00000071140000CD
:1020B00070C00F40C00000001200000013000000BC
:1020C000D0841F4001000000FF000000FF0000005E
:1020D00000000000000000001300000013000000DA
:1020E000CC841F4001000000FF000000FF00000042
:1020F00000000000000000001C000000651400004B
:102100001603550053004200200053006500720082
:10211000690061006C000000180354006500650050
:102120006E00730079006400750069006E006F0036
:102130000403090409026200030100C032080B0015
:10214000020202010009040000010202010005244C
:1021500000100105240101010424020605240600E3
:10216000010705820310001009040100020A0000A3
:102170000007050302400000070584024000000933
:1021800004020002FF6AFF00070581024000010708
:10219000050102400001000009026200030100C0C5
:1021A00032080B00020202010009040000010202D1
:1021B0000100052400100105240101010424020688
:1021C000052406000107058203100005090401002B
:1021D000020A00000007050302000200070584024E
:1021E0000002000904020002FF6AC700070581021D
:1021F0000002010705010200020100000A060002B8
:08220000EF02014001000000A3
:1022080000000000000000000000000000000000C6
:1022180000000000000000000000000000000000B6
:10222800F8B54FF084439D695A6915400DD0254F84
:1022380001269D6195FAA5F4B4FA84F457F8243080
:1022480006FA04F49847A543F4D11F4B9D695A69CF
:1022580015400DD01D4F01269D6195FAA5F4B4FADD
:1022680084F457F8243006FA04F49847A543F4D1C7
:10227800174B9D695A6915400DD0164F01269D616F
:1022880095FAA5F4B4FA84F457F8243006FA04F45D
:102298009847A543F4D1104B9D695A6915400DD054
:1022A8000E4F01269D6195FAA5F4B4FA84F457F807
:1022B800243006FA04F49847A543F4D1BFF34F8FAE
:1022C800F8BD00BFFC190020004000427C1A002025
:1022D80000800042FC1A002000C000427C1B002045
:1022E8000548064B1B1AD90F01EBA301491002D070
:1022F800034B03B118477047C0220020C0220020BA
:102308000000000008B5054B1BB105490548AFF3AF
:102318000080BDE80840FFF7E3BF00BF00000000F1
:10232800F82D00200040016000207047704700BF72
:10233800036D0BB101207047406D003818BF0120B4
:10234800704700BF704700BF10B50446806D18B1D4
:102358000DF0C6FF0023A365236D2BB104F118000F
:10236800BDE8104007F09ABA636D002BF6D110BD96
:1023780010B50446806D00B110BD4FF480700DF0AB
:10238800A7FFA065B0B10022236D02703BB10146E2
:102398004FF48072184606F0D1FEA06D10BD636D33
:1023A800002BE9D001464FF48072184604F05EFE17
:1023B800A06D10BD014B1846A36510BDBB2F0020B2
:1023C80038B5056D6DB10BB1002038BD11462846F2
:1023D80005F0DAFE0028F7D02846BDE8384006F0B8
:1023E80075B8446D002CEFD0204603F0EDFD0028B1
:1023F800EAD02046BDE8384004F060BC8A79A2F1F2
:1024080050031B0622D402F26C72F0B54B7985B0EA
:10241800046D01330D798E784F78DBB209784CB1B1
:10242800204601960095CDE90271042105F0E2FFEE
:1024380005B0F0BD406D0028FAD001960095CDE9B1
:102448000271042104F07EFB05B0F0BD0020704746
:1024580010B50446006D80B1037813F0700F00D1F9
:1024680010BD002105F090FE606D0028F8D0002214
:102478000023BDE8104003F0A7BD606D0028EFD031
:1024880090F8313013F0500FEAD000220023BDE855
:10249800104003F099BD00BF036D10B50C4682B023
:1024A8002BB30DF1060201A9184605F013FA38B34B
:1024B800BDF80430BDF8062053EA020120D0C2F36B
:1024C800451C02F01F00D20AC3F34311400084F8F0
:1024D80001C0A2705A0A013903F01F0302F5EA622B
:1024E8002070012061712371A27102B010BD406D8E
:1024F80030B10DF1060201A903F00CFC0028D7D178
:10250800002002B010BD00BF036D10B50C4682B0AC
:102518002BB30DF1060201A9184605F0CBF938B323
:10252800BDF80430BDF8062053EA020120D0C2F3FA
:10253800451C02F01F00D20AC3F34311400084F87F
:1025480001C0A2705A0A013903F01F0302F5EA62BA
:102558002070012061712371A27102B010BD406D1D
:1025680030B10DF1060201A903F0C2FB0028D7D152
:10257800002002B010BD00BF006990B10368154A81
:102588001B69934225D1036D63B1187810F00800D8
:1025980007D0D8695B69C01A48BF6FF00040704720
:1025A80018467047436D002BFAD093F8310010F0AD
:1025B8000800F6D0186919685A69401A5B6862EB16
:1025C8000303B0F1004F73F10003EAD36FF000404A
:1025D80070471847ED060000036963B11A68074998
:1025E80092698A4208D1186D08B105F0FDBE586D90
:1025F80008B104F031B970471846104729060000A1
:10260800036973B11A68084952698A4207D1186D7B
:1026180008B105F045BC586D18B103F0BFBC1846A9
:1026280010474FF0FF30704785050000036923B35A
:102638001968134A10B58C6882B0944214D1186D89
:1026480048B101220DF1070105F056FB90B19DF844
:10265800070002B010BD586D0028F8D001220DF116
:10266800070103F0CBFBF1E701220DF10701184642
:10267800A047EBE74FF0FF30EBE74FF0FF30704734
:10268800C5050000036D13B1586900217047436DFB
:1026980013B1D3E90001704718461946704700BFC7
:1026A800036D13B1D86900217047436D13B1D3E9A5
:1026B8000401704718461946704700BFF0B595B039
:1026C80000224FF47A74244F1831054604A88DF877
:1026D8000C200097CDE90124CDE9122207F04AF930
:1026E800129B002B2DD05C20002608F02FFD019BAB
:1026F80004464660C36004A9029B183040F8083CB1
:102708009DF80C3000F8043C144B40F8183C144B6E
:1027180040F8103C07F080F8124B4FF47A72A7602B
:102728002B606368A66501336E602E73AA602C6106
:1027380063600D4B04A8009307F0B0F8284615B065
:10274800F0BD139B002BCED1064A2B732A602B6158
:10275800C5E90134EDE700BFE408002008090020BE
:1027680064090020B80800208C060020836C13B18F
:10277800184605F095BBC06C08B103F00FBC4FF0CC
:10278800FF307047036D13B1184605F089BB406DE3
:1027980008B103F003BC4FF0FF307047036D33B14D
:1027A8001B7813F0700F14BF012000207047406D94
:1027B80030B190F8313013F0500F14BF01200020D1
:1027C800704700BF036D13B1184605F095BA406D08
:1027D80008B103F013BB4FF0FF307047836C00B5AE
:1027E80083B063B101220DF10701184605F084FAA0
:1027F80001280CD19DF8070003B05DF804FBC06CFC
:1028080028B101220DF1070103F0F8FAF0E74FF0C3
:10281800FF30F1E7836C13B1184605F0E5BDC06CD5
:1028280008B104F019B87047036D13B1184605F0E4
:10283800DBBD406D08B104F00FB87047036D13B1EC
:10284800184605F07DBE406D08B104F0A9BA70477E
:10285800836C13B1184605F073BEC06C08B104F060
:102868009FBA704700B5836C83B08DF8071043B1E9
:1028780001220DF10701184605F062FE03B05DF86C
:1028880004FBC06C0028F9D001220DF1070104F007
:1028980087FA03B05DF804FB8A79A2F150031B069E
:1028A80022D402F26C72F0B54B7985B0046D013315
:1028B8000D798E784F78DBB209784CB120460196B5
:1028C8000095CDE90271022105F094FD05B0F0BD37
:1028D800406D0028FAD001960095CDE902710221D9
:1028E80004F030F905B0F0BD00207047036D53B116
:1028F800187810F008000DD0D8695B69C01A48BF75
:102908006FF000407047436DA3B193F8310010F0A9
:10291800080000D17047186919685A69401A5B683D
:1029280062EB0303B0F1004F73F10003F2D36FF0D1
:10293800004070471846EDE7836C53B1187810F0E3
:1029480008000DD0D8695B69C01A48BF6FF0004015
:102958007047C36CA3B193F8310010F0080000D1A0
:102968007047186919685A69401A5B6862EB030373
:10297800B0F1004F73F10003F2D36FF000407047DD
:102988001846EDE700B5006983B08DF8071060B10F
:102998000368104ADB68934215D1036D43B10122E5
:1029A8000DF10701184605F0CBFD03B05DF804FBF7
:1029B800406D0028F9D001220DF1070104F0F0F96B
:1029C80003B05DF804FB01220DF10701984703B03D
:1029D8005DF804FB3D0600000369D3B10E4810B44E
:1029E8001C68E46884420FD1186D18B15DF8044B77
:1029F80005F0A6BD586D18B15DF8044B04F0D0B9C8
:102A080000205DF8044B7047184623465DF8044BD8
:102A180018470020704700BF3D06000038B504463F
:102A28000C4B806D236018B10DF05AFC0023A36590
:102A3800236D04F118054BB1284606F02FFF064B0D
:102A48002846A36006F02AFF204638BD636D002B98
:102A5800F2D1F4E7080900208C06002038B50446B6
:102A68000E4B806D236018B10DF03AFC0023A3656E
:102A7800236D04F118056BB1284606F00FFF084BCB
:102A88002846A36006F00AFF20465C2108F060FB98
:102A9800204638BD636D002BEED1F0E70809002011
:102AA8008C06002030B4029C11469C4634B1012C9F
:102AB8001CD0022C0ED0002030BC7047056DF5B13B
:102AC8004FF0FF33934274EB0C04F4D3284630BC28
:102AD80005F05ABB026D0AB3D36959184CF10003CB
:102AE800002BE8D1104630BC05F04EBB026D62B138
:102AF800536959184CF10003002BDCD1F2E7406D03
:102B08000028D8D030BC03F05FBA406D0028D2D07E
:102B1800D0E900238A184CEB0303F3E7406D002843
:102B2800C9D0D0E9042330BC8A184CEB030303F066
:102B38004BBA00BF70B5244B044605690360002DED
:102B480032D06E68013E6E6076BB2B681F4ADB6A26
:102B580093422FD1A86D10B10DF0C2FBAE652B6D5D
:102B680023B305F1180006F099FE2569E5B12B6835
:102B7800174A5B68934224D1164BA86D2B6018B195
:102B88000DF0AEFB0023AB652B6D05F11806A3B164
:102B9800304606F083FE104B3046AB6006F07EFEF2
:102BA8005C21284608F0D4FA204670BD6B6D002BD6
:102BB800D7D1DAE728469847D7E76B6D002BE7D1DE
:102BC800E9E728469847EFE7B808002049010000E0
:102BD8005D080000080900208C06002070B5264B0F
:102BE800044605690360002D32D06E68013E6E60B0
:102BF80076BB2B68214ADB6A934233D1A86D10B1AA
:102C08000DF06EFBAE652B6D43B305F1180006F0B1
:102C180045FE2569E5B12B68194A5B68934228D1BE
:102C2800184BA86D2B6018B10DF05AFB0023AB654B
:102C38002B6D05F11806C3B1304606F02FFE124B76
:102C48003046AB6006F02AFE5C21284608F080FA80
:102C58002046142108F07CFA204670BD6B6D002BCD
:102C6800D3D1D6E728469847D3E76B6D002BE3D13D
:102C7800E5E728469847EBE7B80800204901000037
:102C88005D080000080900208C06002000000000F4
:102C98002DE9F0439C4D95B09C4C40F2EE289C4F9A
:102CA800DFF8CC922E6809F00DFC2378002B00F099
:102CB800FC803B78DB0740F1F8802B68D9F80020CE
:102CC8009B1A0E2B40F2F1800021012008F0A4F895
:102CD8000A2008F023F801218E4C08468E4E08F091
:102CE8009BF80A2008F01AF813218C4809F06CFBAD
:102CF80020468B4D07F0A0FC0BE009F065FB204651
:102D080007F09AFC4621874809F05EFB204607F049
:102D180093FC304602F030FA034621212846002B66
:102D2800EBD02321804809F04FFB7A4807F084FC58
:102D38009FED7E0A784802F063FC002800F0C3800B
:102D48000D217B4809F040FB02217248794D7A4CED
:102D58009FED6B0B07F080FC6E4807F06DFC0022BE
:102D680017216D4802F08AFC1421744809F02CFBE5
:102D78006848064607F060FC04E009F025FB304689
:102D880007F05AFCFE21284607F034FB03461521BC
:102D98002046002BF1D01F21694809F015FB5D483A
:102DA80007F04AFC01210D2008F072F800210E20DE
:102DB80008F06EF80021182008F06AF800211920A0
:102DC80008F066F844F202235E4A68465E4906F057
:102DD8007FFE129B002B7ED05C20002608F0B6F9FF
:102DE8005A4A9DF80C3004460260594A0375DDE9D9
:102DF8000151C0E90162C0E9035104AD1830294608
:102E080006F00AFD6368534A0133A665C4E9013236
:102E1800DFF860812846504ECDF8008006F03EFD70
:102E28003569002D35D06F68013F6F60002F30D1B4
:102E38002B684A4ADB6A934257D1A86D10B10DF04E
:102E48004FFAAF652B6D002B4BD005F1180006F03B
:102E580025FD3569EDB12B68414A5B6893424BD13A
:102E68003A4BA86D2B6018B10DF03AFA0023AB6508
:102E78002B6D05F11807002B3AD0384606F00EFDE9
:102E88003846C5F8088006F009FD5C21284608F098
:102E98005FF9012277213348346100F065FC32483C
:102EA80015B0BDE8F04301F0D7BE2B6822789B1B14
:102EB80032B1B3F5FA6F3FF607AF09F003FBF2E65C
:102EC8004345FAD900E71321284809F07DFA11484B
:102ED80007F0B2FB34E7139C002C7FF47DAF04AD00
:102EE80096E76B6D002BB0D1B3E728469847B0E75B
:102EF8006B6D002BC1D1C3E728469847C9E700BFCF
:102F08000000000000988C40902F0020C52F002062
:102F1800C42F0020F8110020182E0020D00E002009
:102F2800E40E0020080F0020500F002000C0644469
:102F3800880F002088240020B00F0020980F002060
:102F4800C80F0020E80F00208C240020080900206A
:102F580064090020E4080020381C00204901000012
:102F68005D080000F02C0020EC2D0020740F0020DC
:102F7800A02F00208C06002070B501210D204F4E97
:102F88002DED028B07F048FFFA2007F0C7FE00215D
:102F98000D2007F041FFFA2007F0C0FE0E2007F0D1
:102FA800EDFC0A21464809F00FFA0221454809F0CC
:102FB8000BFA454807F040FB182007F0DFFC0546F0
:102FC800192007F0DBFC13210446404809F0FCF9FE
:102FD8003D4807F031FB29463B4807F021FB3A48BA
:102FE80007F02AFB2146384807F01AFB364807F055
:102FF80023FB0621364809F0E7F94FF0FF31324844
:1030080007F00EFB304807F017FB324800F0ACFC25
:10301800B0EE408A0621304809F0D6F90221B7EE11
:10302800C80A294807F018FB274807F005FB346948
:103038006CB123682948DD680DF0E2FC284B024694
:103048009D4233D1206D20B3244905F079FA32200E
:1030580007F064FE336943B11A68224992698A42CB
:1030680028D1186DE0B105F0BFF91A211E4801F00A
:1030780065FE044615211D4809F0A6F921461248A7
:1030880007F0CEFA1048BDEC028BBDE8704007F09F
:10309800D3BA606D0028DAD0104903F081FED6E774
:1030A800586D0028E1D003F0D7FBDEE70B49204636
:1030B800A847CCE718469047D7E700BF381C002040
:1030C800580E0020640E0020F8110020680E002021
:1030D8007C0E0020F02C0020840E0020842D00207F
:1030E8003D06000029060000EC2D00208C0E002073
:1030F80010B504464FF4987108F02AF8204610BD20
:1031080038B50E4D0E4C0F490F4800F025FB2A46E6
:103118000E490F4809F0E4FB0E4B0A210022204615
:1031280002F0E2F82A460C49204609F0D9FB13229E
:1031380012210A48BDE8384001F08ABDD0150020A8
:10314800182E002008120020F02C0020350900005D
:10315800381C0020DC2D002045010000EC2D00204B
:1031680090F8A32090F8A200101A704790F8A230A7
:1031780090F8A3209A4205D95A1C034480F8A2204B
:10318800987E70474FF0FF30704700BF90F8A2302C
:1031980090F8A3209A4202D91844807E70474FF0D5
:1031A800FF307047704700BF0346B0F8300178B170
:1031B80093F82F21882A03D9012200205A607047EA
:1031C80002F1010C01201A4483F82FC182F8A510DE
:1031D800704700BF38B5B0F830410CB9204638BD4B
:1031E80090F82F310546C3F18904A2420DD8144640
:1031F80005F1A5002246184407F00EFF95F82F3177
:103208002046234485F82F3138BD01224260EFE77C
:103218002DE9F04FD0F814A01524017E8146437E95
:1032280083B00AEB0111384A0AEB0313374F097AC6
:1032380093F8283002EB01150901E86852F801807B
:1032480002EB0311D5F804B01B01CE68D558CBF8B2
:103258000040C8F88400D8F804304A6803432C4971
:103268000192C8F804301460C5F884606B68334371
:103278006B60284B4C683A68A3FB0232920C02EB55
:10328800820252004B681B1B9A42FBD84FF0090C74
:103298001F4ADFF880E0D8F80830034202D0AB6854
:1032A80033422FD1C5F8886054683968AEFB0131C4
:1032B800890C01EB810153681B1B9942FBD8C5F8A7
:1032C800846054683968AEFB0131890C01EB8101D7
:1032D80053681B1B9942FBD8BCF1010CDBD160463B
:1032E80099F81830019A0AEB0313DB68CBF8003021
:1032F80099F819300AEB031ADAF82C30136003B086
:10330800BDE8F08F0120EBE7E80A0020A4110020B7
:10331800001000E083DE1B430E4A10B511680469F3
:1033280005E0DB0107D413685B1A102B08D8636922
:1033380013F0007FF5D14FF4FE430120636110BD07
:10334800FFF766FF0028FAD04FF4FE4301206361BF
:10335800F5E700BF902F00202DE9F04790F82FA146
:103368000569BAF1000F4FD081468846FFF7D4FFB0
:10337800002849D0374E0024376818E06B691905D2
:1033880051D4DA0455D4580559D4990441D4326833
:10339800D21B322A3DD8544507D9EA6D520704D1C9
:1033A8009B0555D4B8F1000F52D009F08BF854455D
:1033B800E4D8EA6D500702F00703DFD413E099F868
:1033C800A5200133022442F48062042B2A661ED011
:1033D8008A4503F1010309EB01020ED992F8A520F1
:1033E800042B2A66CAD00121002CE8D021460133DB
:1033F80001348A4509EB0102F0D8B8F1000FBDD0BD
:103408004FF400732B66B9E70420BDE8F087012468
:10341800B4E72B694FF40072042043F440732B6126
:103428002A66BDE8F0872B69042043F440732B61BA
:10343800EBE72B69052043F440732B61E5E72B6923
:103448004FF40072022043F440732B612A66DCE7D4
:103458000020DAE7902F00202DE9F84F83460C462C
:1034680015461F46D0F810A0FFF756FF002800F0B9
:103478009E806100012DDFF83C8140F20146CBB20D
:103488004FF0000138BF0125D8F800900C461E43C4
:10349800ABF8A21020E09BF8A330872B3FD9DAF8CD
:1034A800142010055AD412F4105F70D1D8F80030E7
:1034B800A3EB0903322B6AD89BF8A330AB4209D39C
:1034C800022C07D9DAF85C30590703D193054BD49D
:1034D800002F49D008F0F6FF022CDCD8DAF85C306F
:1034E80003F007025B07D6D4681E224440F48070BC
:1034F8004CB9CAF860600134131B032BCBD8022CDB
:10350800C9D8002CF5D0012C37D01FB14FF4007367
:10351800CAF860309BF8A3300324872BBFD8DAF8A9
:103528005C2012F4E02FC2F3024CB8D0591C9C4422
:103538001933C9B25FFA8CFC5BFA83F3DAF87000CE
:103548004A1C61458BF8A310D1B203F8010FA6D02D
:103558008929F3D1DAF814201005A4D5DAF8103047
:1035680043F44073CAF81030DAF85C3013F4E02FF3
:1035780006D19BF8A300BDE8F88FCAF86000BAE747
:10358800DAF8103043F40073CAF81030F1E7DAF8CB
:1035980010304FF4007243F44073CAF81030CAF880
:1035A8006020DAF85C3013F4E02FE2D0E8E704207A
:1035B800BDE8F88F902F0020F8B506690446D6F8C4
:1035C800145115F4706301D0C6F81431A8070BD54F
:1035D800D6F8702111043DD50023012184F8A230CA
:1035E800234484F8A3109A76EA0710D594F830712A
:1035F800F7B194F82E7194F82F31BB4226D97B1C71
:10360800274484F82E3197F8A530C6F86031AB0509
:103618000DD594F8A30018B1D4F83C3103B19847FC
:103628000023A4F8A230A4F82E3184F83031F8BD74
:10363800D4F8383103B19847002384F82E31012398
:1036480084F8303194F82F31BB42D8D80023C6F81B
:103658006031DCE794F8A330872BC5D8591CC9B270
:10366800BEE700BF0148FFF7A7BF00BF0812002050
:103678000148FFF7A1BF00BF481300200148FFF72A
:103688009BBF00BF88140020094A0A4B51681B6879
:1036980010B4094CA4FB03439B0C03FB00F05368D4
:1036A8005B1A9842FBD85DF8044B08F00BBF00BFCB
:1036B800001000E0A411002083DE1B4300B59E46E5
:1036C80085B001238446704600930DF10F038DF8F1
:1036D8000FC009F007FD013840B205B05DF804FBE2
:1036E800844618460B466CF07F0C10B5144684B01F
:1036F80000220DF10F010094019201228DF80FC0F4
:1037080009F04CFD013840B204B010BD10B50446B4
:1037180084B09C4601238DF80F400DF10F046046DC
:103728000193009409F0FCFA013840B204B010BDCE
:1037380010B59E4684B01446012284460B46704656
:103748000DF10F018DF80FC0CDE9004209F054FBCF
:10375800013840B204B010BD00228161C0E90422E2
:1037680002628284704700BFF8B504464069174674
:10377800002858D009F046FC002852D0002362697E
:103788003C4984F8283084F834303B4B04F1280550
:10379800E2621922284684F83620C4E91A13374B06
:1037A800236700F041FCE0BB002F5AD004F17806F3
:1037B80002272946304684F87B7000F00FFD082365
:1037C8002946304684F87C3000F008FD294630460A
:1037D80084F8787000F002FD03232946304684F807
:1037E8007A3000F0FBFC04232946304684F879300F
:1037F80000F0F4FC4FF4A07201209623A4F8822074
:1038080004F180012A4684F88000A4F8843001F08D
:1038180079F82946012000F09FFCB0FA80F04009B1
:10382800F8BD0020F8BD20690E4610B1102107F040
:103838008FFC102007F08AFC05463146A26909F082
:1038480049FA01212846256109F04EFA0028E8D0F6
:10385800012322690A4984F8343084F82860094B26
:1038680094E721462A46012001F8807F01F04AF8B2
:10387800CFE700BFE1140000BD1400008914000068
:10388800311500000D150000016A30B504468BB0F3
:10389800002938D0808C08182CD004F12803304A2D
:1038A8001268801A002828DC00250DF10F0204A9EF
:1038B80001202562A58400F083FDD8B99DF80F305A
:1038C800002B46D0DDED077A9DF81030FCEEE77A44
:1038D8000699089A13F030032160A260C4ED017ABA
:1038E8003AD0DDED097A0120FCEEE77AC4ED037ADF
:1038F8000BB030BD00200BB030BD4000019307F085
:103908000DFA019BD0E700F1280301201946019325
:1039180000F022FC0028EDD1019B04F17801012080
:10392800104D1A4600F00CFDB4F884204FF47A715B
:1039380001FB02000A4AA5FB0050116880092162B8
:10394800A08411FA80F00028D4D0019B0029A7D1C7
:10395800AAE701200BB030BD0120E3600BB030BDF9
:10396800902F0020D34D621010B50446FFF78CFF4E
:1039780094ED000A10BD00BFF6EE003ADFED5A6A7A
:1039880091ED0E3AB7EE006A91F92830E3EE236A1A
:103998009FED564A07EE103AB1F926309FED545A7A
:1039A800B8EEC77A07EE903ADFED524AF8EEE77ABA
:1039B8008B8C27EE267A05EE903A67EEA67A27EEEC
:1039C800267AF8EE655AE7EE047AB0EE467A2DEDDF
:1039D800028B82B067EE857A0190A7EEA47A65EE35
:1039E800875AFDEEE57A17EE903A002B75D091F9DB
:1039F8002E3026EEA64A9FED403AF0EE002A07EE5A
:103A0800103AB1F92C30B5EE008ADFED3C0AB8EE79
:103A1800C77A05EE103AB1F92A3007EE900AB8EEE7
:103A2800C55A9FED376A27EE037A03EE903AF8EE0F
:103A3800677A9FED340A25EE265A9FED331A27EE52
:103A4800047AB1F93230F8EEE33A9FED304A36EEB7
:103A5800676A06EE903AA5EE227AB1F93030F8EEB0
:103A6800E66ADFED2B1A07EE903A91F834309FEDB5
:103A7800292AF8EEE77A05EE103A91F92F3027EE69
:103A8800087ADFED252A67EEA47A04EE903AB8EEBC
:103A9800C55AA3EEA07AF8EEE44A25EE035AA7EE3B
:103AA800406A26EE017A87EE250A26EE807A67EECE
:103AB800807A60EE046A27EE007A26EEA66AE7EEC0
:103AC800217A26EE267AE7EE057AE4EE827AA7EEE8
:103AD800A20A02B0BDEC028B70479FED100A02B03B
:103AE800BDEC028B704700BF00007AC70000803829
:103AF8000000003600000038000000370000804752
:103B080000008049000080390050C3450000803B18
:103B180000000030000000430000803D000000006D
:103B2800DFED317AB7EE006AD1ED0E6AB3EE002A06
:103B380091F91530C6EEA75ADFED2C2A04EE903A1B
:103B480091F9143006EE900A9FED293A07EE103AE3
:103B580091F9163005EE103A91F91830F8EEE44A6A
:103B680007EE903A4B8ABAEEEF7A00EE103A64EE1E
:103B7800A24ACB7DBAEEC65AFAEEE57A04EE103ABE
:103B88000B8AF8EE666A03EE903ABBEEC70AB8EE07
:103B9800444AA4EEA56AF8EE633A27EE257A25EEA4
:103BA800255A67EEA57AA3EE827AA5EE256AE4EE99
:103BB800227A36EEC77A20EE060A20EE070A67EE6A
:103BC800807AA7EE800AB4EEC30AF1EE10FA05DC9B
:103BD800B5EEC00AF1EE10FA03D47047B0EE430A0E
:103BE80070479FED040A70470000A0450000803828
:103BF8000000C84200000000F0B5314BA1B007EE4C
:103C0800900A16469C4603F1400420ABF8EE675A2A
:103C1800DFED2C7A6D4603EB8107012375EEE75A39
:103C28000DF1400E8B40DFED284AF1EE043A9FED8E
:103C3800277A07EE903AB7EE000A9FED254AF8EE8C
:103C4800E76ABCE80F000FC5BCE80F000FC5BCE869
:103C58000F000FC59CE80F0085E80F000FCCAEE8F9
:103C68000F000FCCAEE80F000FCCAEE80F0094E8C1
:103C78000F008EE80F0096F93E3057ED207A05EEDA
:103C8800103A17ED103A87EEA46AB8EEC55AC3EE9B
:103C9800247AA5EE237A36EE006A26EE076A85EEC8
:103CA800867A77EE807A67EE847A67EEA67A37EEC0
:103CB800007A67EE277A80EE270A21B0F0BD00BFB0
:103CC80080020020000000440000C8420080A74491
:103CD800BD370634C0434B7BC0F3C010B3EB001FA5
:103CE80025D002014B68F32030B50C4683B04A73E7
:103CF80001220DF10701256CA84784F84C00C0B9D2
:103D08009DF807300DF10701627B732023F0100343
:103D1800656C02F01002134301228DF807306368C6
:103D2800A84784F84C0020B9002003B030BD00201B
:103D380070476FF00100F8E707EE903A82B09FED08
:103D48002E7A06EE902AFAEEE87A9DF908309FED71
:103D58002B4AB0F5C87FF8EEE64ADFED292AA7EE30
:103D6800874A07EE903A9DF80C30B7EE005A28BF04
:103D78004FF4C870DFED235A06EE903A9DF91030E3
:103D880007EE100AE4EEA25A06EE103AF1EE003AF7
:103D9800F0EE452A9FED1C2AB8EEC66AF8EE666A70
:103DA800B8EE477AB0EE453AE6EE022A76EEA36A16
:103DB800A4EE073A07EE101AFAEECB7A9FED134AF3
:103DC800F8EEC74A83EEA66A67EEA47AC5EE224AE1
:103DD800E5EE837ABBEE097A66EE276AF0EE477A5B
:103DE800E6EEA47A67EE847AFCEEE77ACDED017A06
:103DF8009DF8040002B070476F12033A75021A3B2F
:103E08000000803D000044426F12033B9A995940DC
:103E18009AB1136C8BB1536C7BB1936C6BB1037813
:103E28008B4208D90170002092F84D3043F001030D
:103E380082F84D307047002070474FF0FF307047D0
:103E4800F0B130B5056C83B004469DB1436C8BB1BD
:103E5800836C7BB1436801220DF10701F320A84769
:103E680084F84C0048B99DF8073003F010036373D9
:103E780003B030BD4FF0FF30FAE76FF00100F7E70D
:103E88004FF0FF30704700BF2DE9F043002787B09F
:103E9800CDE90177CDE903770597002B58D01E4669
:103EA8001B6C002B54D0736C002B51D0B36C002BBF
:103EB8004ED000284CD000294AD002F1FF39904654
:103EC800B9F1090F47D80446894438464D1E0DF10B
:103ED800050709E02378013407F8013C15F8013F8C
:103EE8004D4507F8023B19D0337B002BF2D1326CD9
:103EF800237852B3726C42B3B26C32B3184631466F
:103F0800FFF7E8FE237803F07F03013407F8013C4C
:103F180015F8013F4D4507F8023BE5D110B107B050
:103F2800BDE8F0834FEA4802746C73680DF105012F
:103F3800013A9DF80400A047002886F84C0018BFF5
:103F48006FF0010007B0BDE8F0834FF0FF30DAE70B
:103F58004FF0FF30E3E76FF00300E0E72DE9F843A7
:103F680043B3D3F840801C46B8F1000F22D05B6CF5
:103F780003B3A36CF3B10D46E1B1237B0746914629
:103F880073B100264A46294638466368C047002868
:103F980084F84C0018BF6FF001063046BDE8F8837E
:103FA8002146FFF797FE064608B947F08007D4F880
:103FB8004080E7E74FF0FF36EFE700BF30B5E0227B
:103FC80083B0B6238DF806208DF8073048B3036C0C
:103FD800044633B3436C23B3836C13B3037B9BB1A5
:103FE8000DF10701234601220DF10600FFF74CFFF2
:103FF8000546A36C42F21070616898470DB9237B9F
:1040080053B1284603B030BDFFF71AFF0546002814
:10401800E6D0284603B030BD2046FFF711FF05461D
:10402800EFE74FF0FF35ECE710B58CB00446FFF72B
:10403800C5FF844610B160460CB010BD234601226E
:104048002146D020FFF78AFF84460028F3D1227842
:10405800612A7ED18DF804002346012201A9F020AF
:10406800FFF77CFF84460028E5D19DF8040023462D
:10407800172201A9A0608A20FFF770FF8446002854
:10408800D9D123460E220DF11B01E120FFF766FF6F
:1040980084460028CFD1234605220DF12901FFF7D8
:1040A8005DFF84460028C6D1BDF812209DF81C305B
:1040B80052BA9DF81D10BDF82300E285BDF8162000
:1040C800E0832286BDF8182062869DF81A2084F8BD
:1040D800342003F00F021B0942EA01129DF81B105D
:1040E800228243EA0113BDF82020BDF81E10E282A7
:1040F800A1829DF80620BDF8041084F822202184AE
:104108009DF80C200299638261629DF82230BDF807
:104118000E1084F82820BDF810206185A28523762A
:104128009DF82B209DF82710C2F301129DF92D3020
:10413800BDF825001B11617684F83C209DF82910F4
:104148009DF82820608384F83D1084F83E3022775B
:1041580071E76FF0020C6EE770B5742382B0064603
:104168000D468DF807302B4601220DF1060174200B
:10417800FFF7F4FE044610B1204602B070BD9DF86A
:1041880006309A0715D1002EF6D023F0030106F069
:1041980003062B46012241EA06000DF106018DF8BF
:1041A80006000DF10700FFF76FFE0446204602B037
:1041B80070BD23F003040DF106012B4601220DF119
:1041C80007008DF80640FFF75FFE0446AB6C42F22D
:1041D800107069689847002CC5D0CDE72DE9F041EB
:1041E800564D86B00B4606460024012295E803008A
:1041F80004941D46029074208DF80C100DF10701EF
:104208008DF81440FFF7AAFE9DF8077058B10446D0
:104218001EB1204606B0BDE8F0814FF0FF342046BD
:1042280006B0BDE8F0812946FFF796FF0446002E48
:10423800F3D00028EDD12B460522712004A9FFF701
:104248008DFE85F84D4004460028E2D12A46072114
:10425800F01CFFF7DDFD04460028DAD10521701CAB
:10426800FFF7D6FD04460028D3D1B01CFFF7D0FDD8
:1042780004460028CDD13046FFF7CAFD0446002881
:10428800C7D10821301DFFF7C3FD04460028C0D15F
:104298009DF81320717802F01F02F378307942EA12
:1042A8004112B1789B0008284FEA810122F01C02D4
:1042B80003F01C0301F01C0142EA01029DF81410EE
:1042C80021F01C018DF813209DF8112043EA010309
:1042D800317822F0070201F007015BB242EA0102DD
:1042E8008DF8112026D04001002244B203F01F03AC
:1042F80007F0030704A902A823438DF814309DF89A
:10430800103003F07F031A432B468DF81020052246
:10431800FFF7BAFD0446002F3FF47BAF00287FF477
:1043280078AF29463846FFF717FF0446204606B0FF
:10433800BDE8F0816FF07F02D8E700BFE00A0020F7
:104348001E4B30B5054683B00C4693E80300009039
:10435800ADF8041024B10521601CFFF759FD10B118
:10436800002003B030BDA01CFFF752FD0028F7D194
:104378002046FFF74DFD0028F2D1617840F2AB707E
:10438800A278022D237801F1080102F1080269449C
:1043980003F108036A446B4411F8081C12F8082C4E
:1043A80013F8083C0A44134400FB03F30CBF41F222
:1043B800C50041F2AD40184403B030BD00030020F1
:1043C8002DE9F04F2DED088BB5B007460D460021BD
:1043D80022AC089248221E4620460CF069FA28AB07
:1043E8000A940B932EAB0C93002E00F05A82336C78
:1043F800002B00F05682736C002B00F05282B36CD5
:10440800002B00F04E82002D00F04B82012F2CD0A3
:10441800023FFFB2012F4FF000070BD90123089A82
:10442800002A00F03E821770184635B0BDEC088BA4
:10443800BDE8F08F2F22394616A815970CF038FAE8
:104448003346332215A91D201397ADF85070CDE9D6
:104458000D77CDE90F77CDE91177FFF77FFD0028BC
:1044680000F0EA8000270223D9E7002305240997F2
:104478008DF86430CDE91533CDE9173309E0002B09
:1044880049D1013CB36C7168984714F0FF0400F0FF
:1044980036823346112215A91D20FFF75FFD9DF8CE
:1044A80055209DF854E00346AA709DF857200EF059
:1044B8000F019DF862800EF0800E02929DF8582040
:1044C80069700392B0689DF85920019004929DF894
:1044D8005C009DF85A200790059201989DF85B2092
:1044E80001289DF85670069208F030029DF86490F5
:1044F8004EEA02029DF85DC09DF861A09DF863B088
:104508000BD02A70120642F21070B8D53C46CDF88E
:1045180004C0099F33B1002781E709F030024EEA51
:104528000202EEE701F15A0033460122E91CFFF7C7
:1045380015FD03460028EED1687833460122291D6F
:104548005030C0B2FFF70AFD03460028E3D168786F
:1045580033460122691D6430C0B2FFF7FFFC0346F1
:104568000028D8D1069BB3EE005A059A31461B099C
:104578009FEDCD7ADFEDCD6A43EA0213049A9FEDF1
:10458800CC4A43EA0233DFEDCB4ADFEDCB5A07EEE4
:10459800903A039B1809029BF8EEE77A40EA031069
:1045A800F38B06EE103A96F9223040EA0430B8EE62
:1045B800466A27EE467A66EEC66AA7EE847AE7EE82
:1045C800A46A07EE903AB6F92030F8EEE77A27EEBB
:1045D800077A67EE857A67EE877A07EE103AB8EEC3
:1045E800C77AE6EE877A87EEA57AC6ED0E7A85ED6C
:1045F800027AFFF7C1F9019B079A85ED030A43EA9E
:104608000220FFF78DFAB36885ED040A012B00F04C
:1046180057814FEA9810324608F00F0140EA8A00A5
:10462800FFF7EAFA85ED050A95F90030002BAABFD5
:10463800002700230223F2E633461E220DA950204C
:10464800FFF78CFC00287FF40DAFF38BB3EE007AF4
:104658000DF1280BD6F808A007EE903A96F922300B
:10466800DFED929A15AF08EE103AB6F92030F8EE61
:10467800677A9FED8D9AB8EEC88A08EE903ACDF821
:1046880004A0B246049569EEE79A29EE679A9FED71
:1046980089BA28EE078ADFED86AAF8EEE88A9FED48
:1046A80086AADFED86BA2546CDF808B0CDF80CB05D
:1046B80014E04FEA9B100BF00F01524640EA8600C7
:1046C800FFF79AFA11370DF1870385ED050ABB420A
:1046D80000F08480029B53F8045F0293F878B9785D
:1046E8007E780001BA7940EA0130AE70797912011A
:1046F8003E7942EA013297F800C040EA1610FE7986
:1047080097F80EB00CF00F0142EA16130CF0800C6B
:104718003A7A0BF0300E07EE103A019B97F80980B1
:104728004CEA0E0E012B97F8109048EA02287E7B7F
:10473800FA7B697003D109F0300E4CEA0E0EB8EE20
:10474800C77A01F1D003F0EE497A85F800E0F0EE7F
:10475800696A0DEB0301E7EE2A7A11F89CCCE7EEC3
:104768000B6A85F804C011F892CC11F8881C85F8FA
:1047780003C067EEA77A6971514667EE887AE6EE5C
:10478800A87A87EE8A7ACAED0E7A85ED027AFFF763
:10479800F3F8404685ED030AFFF7C2F9019B85ED62
:1047A800040A012B85D14FEA99114FF4802309F0AF
:1047B8000F0941EA820223FA09F902EB420207EEE5
:1047C800909A02F52062F8EEE77A07EE102A67EE73
:1047D800AB7AB8EEC77A87EE870A73E79DF9A030FF
:1047E8009DF88870002B9DF9B8304FEAD717B8BFED
:1047F8000137002BDDE903B501DA0137FFB25E4668
:104808004FF0000C0CF1010C06F1040E60467146E5
:1048180094F9008051F8042BB8F1000F94F8029035
:1048280093780CDB92F90030002B02DA326041F801
:10483800044C02284FF0020017D03468E8E792F9D8
:104848000080A3EB0903B8F1000F9BB203F1020843
:10485800EFDA1FFA88F81BB2B8F1010FE6D9022B7C
:10486800E4DC02284FF00200E7D1BCF1020F05D0CA
:10487800DEF8004076464FF0010CC3E705F1480C1E
:104888005BF8046B2C4618350FCEAC450FC496E880
:10489800030084E80300F3D1B7FA87F35B095B00F0
:1048A800BDE54FF0FF33BFE5000000390000803A56
:1048B80000000037000080380000A045002474493B
:1048C8004FEA991309F00F095FED046A43EA8B0375
:1048D80003EB430303F5206307EE903A4FF480237C
:1048E80023FA09F3F8EEE77A07EE103AB8EEC77A3A
:1048F80027EE267AC7EE276AC5ED056A94E6099F72
:1049080092E600BF2DE9F04F47F270139BB0ADF867
:10491800343000293AD007460E4600201146154685
:10492800FFF71AFC044618B120461BB0BDE8F08F0B
:104938006E230DF144090DF150080DF1380B8DF877
:104948003330CA46B34BC6460DF15C0C022F93E8D0
:104958000700ABE80300AAE80300AEE80300ACE8F0
:104968000300ABF80020AAF80020AEF80020ACF84D
:1049780000207FD0032F03D0012F0DD00124D3E7CF
:10498800F3681BB1B268002A40F0E4804FF0FF34AE
:1049980020461BB0BDE8F08F95F93D30029395F89D
:1049A8003C30019395F91C3000935A2395F919204E
:1049B8008DF8383095F90E10B5F91A307088FFF770
:1049C800BBF9B28864238DF84400B2F57C6F8DF88A
:1049D800503080F015813F2A40F207819208013457
:1049E8003F2AE4B2FAD8A401E3B21344DBB28DF84B
:1049F8005C3001220023059349460EA82B460692F7
:104A0800FFF742FA044600288ED1069A40462B4604
:104A180017A9FFF739FA0446002885D12B46022248
:104A280017A97020FFF79AFA044600287FF47CAF94
:104A38003378012B00F0DD8008269DF85D002B46B9
:104A4800059A17A920F00F001043022220F0300029
:104A580020438DF85D009DF85C0020F0080030438D
:104A68008DF85C000DA8FFF70FFA044620461BB02E
:104A7800BDE8F08FF368002B88D0B268002A85D093
:104A8800718A0891002900F0BD80317C05910029C8
:104A980000F0C480A3F1020B95F91C30901E00278A
:104AA800069395F83C30BA46B5F91AC0079395F9BC
:104AB8003D3095F90E1095F91920099404460A9687
:104AC8001E460B9565460AF15A030EA80AF1640AB8
:104AD800C355079B34F8020F0193069B0296009377
:104AE8002B46FFF729F908F807A009F8070017A8C7
:104AF8003BF8023FC3550137059B5FFA87FA9A4591
:104B0800E1D340F28273089A0B9D9A42DDE9094687
:104B180000F29B804FF47A73089A03FB02F2134663
:104B28003D4A82FB031247F23F718B42C2F30F12D8
:104B38004FF0000306D9920801333F2ADBB2FAD8B6
:104B48009B01DBB21344DBB28DF83230002C6ED0FF
:104B58000324E9E6317C0591002974D095F91C00FD
:104B6800A3F1020AB5F91A30A2F1020B0690274602
:104B780095F83C0095F90E10079095F93D0095F9C8
:104B880019200896064609951D4607F15A030EA8EE
:104B980064370355079B3BF8020F0193069B029667
:104BA80000932B46FFF7C8F808F8047009F80400CA
:104BB8003AF8020FB0F57C6F19D23F284FF0000386
:104BC80006D9800801333F28DBB2FAD89B01DBB253
:104BD8000344DBB217A803550134059BE7B29F4293
:104BE800D3D31A46DDE9086506E72346FDE6FF2329
:104BF800F0E7AB680646012B0CBF202410241CE705
:104C0800FF23F4E6317C0324059100297FF442AFA9
:104C180080E700BF08030020C545960840F282736C
:104C2800089A9A427FF676AFFF238DF832302B46EA
:104C380001220DF132010DF13300FFF725F9044689
:104C480000287FF471AE059AD6E6FF237CE700BF03
:104C580001704270704700BF10B50446002100780B
:104C680006F016F96078012106F012F90121607842
:104C780006F0D2F8012006F051F860780021BDE86E
:104C8800104006F0C9B800BF2DE9F0470446894630
:104C9800207806F0EBF80128FAD00025607818266D
:104CA800DFF890802946DFF890A0214F06F0B4F88D
:104CB8000121607806F0B0F8DAF80410D8F800207E
:104CC800A7FB0232920CDAF804305B1A9A42FAD83F
:104CD80020786D0006F0CAF80346002160781D436D
:104CE80006F09AF8DAF80410D8F80020A7FB023288
:104CF800920CDAF804305B1A9A42FAD8013ED7D1FE
:104D0800B9F1180F0CD9A9F11809012160780E44DE
:104D180006F082F80021607806F07EF84E45F4D15E
:104D28002B0248BF45F07F452846BDE8F08700BF05
:104D380083DE1B43A4110020001000E038B50D46A7
:104D48000446FFF7A1FF1A2D2946204604D0FFF795
:104D58009BFF6368C01A38BDFFF796FFA368C01AA7
:104D680038BD00BF044B1A685166D36D13F4F81FA1
:104D7800FBD0506FC0B27047A8110020704700BF29
:104D8800134AD37C13B3D80704D5906A4FF0E021B7
:104D9800C1F80001990704D5D06A4FF0E021C1F8A5
:104DA8000401580704D5106B4FF0E021C1F8080141
:104DB800190704D5506B4FF0E021C1F80C01DB0650
:104DC80004D5926B4FF0E023C3F81021704700BF61
:104DD800A811002002790346042A10B433D0013AFE
:104DE800D2B2022A1ED8194951F822409A79587924
:104DF800511E02291CD892000128D2B214BF0721E3
:104E0800134902F0080002F0040208B141F0004121
:104E18000AB141F080410F48C3E902415DF8044BF3
:104E280007F002BE9A790C4C511E58790229E2D932
:104E380001280749074818BF0721C3E902415DF85F
:104E4800044B07F0F1BD054CD0E700BF2803002054
:104E580007008000A811002040420F000024F40041
:104E6800014807F013BF00BFA8110020362900D958
:104E780070479D21014807F0F1BE00BFA81100202E
:104E880030B482B00C4602AB03E90600C37C002BA9
:104E980030D072B6C37CDA0708D54FF0E0214569F7
:104EA800D1F880212A408262C1F880219D0708D567
:104EB8004FF0E0218569D1F884212A40C262C1F807
:104EC8008421590708D54FF0E021C569D1F8882118
:104ED8002A400263C1F888211A0708D54FF0E0215B
:104EE800056AD1F88C212A404263C1F88C21DB067F
:104EF8002FD462B683689C4235D0224B84609B696C
:104F0800214AC3F30111C3F3826352F8211001331C
:104F1800B1FBF3F2CCB1944227D8B2FBF4F3B2FB65
:104F2800F3F294422CD3B3F5817F20D3174CC4609D
:104F3800036803220020019918615A6201221C6447
:104F480019661A6102B030BC70479942EFD3531CFE
:104F5800E9E74FF0E022416AD2F890310B408363D1
:104F6800C2F89031C5E7C468E2E70024DFE7022B06
:104F7800FBD9023B5A08140244EA02441C43D6E710
:104F88001A46E4E700C00F40D00A0020FF7F7F00E8
:104F980008B503460348083393E80600FFF770FF97
:104FA80008BD00BFA8110020002310B5064C1A4602
:104FB8001946204600F080FC0449054A0723216071
:104FC800C4E9022310BD00BFDC2D00206C070020BF
:104FD80000093D0001207047FB2070470379012B31
:104FE80010D003680A4AD3F88030934210B50446BB
:104FF8000AD100220121204600F006FD01230120EC
:10500800237110BD0120704701219847F1E700BFC7
:10501800D52D00000379052B10B5044614D003687C
:105028000D4AD3F88030934213D10722012120463C
:1050380000F0EAFC80224021204600F0E5FC052330
:10504800237101E007F03EFA2379052BFAD0207E80
:1050580010BD05219847E8E7D52D00000379032BFB
:105068001AD00379042B10B5044611D003680D4AF1
:10507800D3F88030934211D105220121204600F057
:10508800C3FC00224021204600F0BEFC042323710B
:1050980094F82801C0B210BD002070470421984739
:1050A800EAE700BFD52D0000FB2AF8B51BD8036836
:1050B800044616460F461B6A98472379022B0CD0E4
:1050C80023682C4AD3F8803093424BD101222046E2
:1050D800114600F099FC0223237123682046DB6AFD
:1050E8009847054610B900252846F8BD00220D212D
:1050F800204600F089FCE27A0021204600F084FC7A
:10510800227B0021204600F07FFC627B00212046A4
:1051180000F07AFCA27B0021204600F075FC3346A3
:105128003A460021204600F049FD321D2221204642
:10513800D2B200F069FC2379032BD5D023680D4A3D
:10514800D3F88030934211D103220121204600F088
:105158005BFC40222046114600F056FC03232846FB
:105168002371F8BD022120469847AFE70321204666
:105178009847E9E7D52D000070B5044600F0B0FB6C
:1051880038B194F826100546FF2900F083803629A7
:1051980002D90025284670BD20460E4600F076FD4F
:1051A80080220121204600F02FFC0A2005F0B6FDE0
:1051B8000121204600F0CAFB8028EAD194F8260095
:1051C800FF2814D0002105F063FE94F82730FF2B48
:1051D80063D03F4A42F82340002B68D0012B70D09F
:1051E800022BD6D103223B49F0B205F08BFE0022F8
:1051F8000E21204600F008FC00220F21204600F076
:1052080003FC2379022B0CD02368334AD3F880306F
:10521800934252D101222046114600F0F5FB0223A9
:10522800237172221D21204600F0EEFB74221E21FC
:10523800204600F0E9FB04222621204600F0E4FB8A
:1052480000222021204600F0DFFB082221212046F1
:1052580000F0DAFB6C220621204600F0D5FB802204
:105268000721204600F0D0FB00220821204600F04C
:10527800CBFB002304224D2184F82931204684F8F1
:10528800253000F0C1FB8B220921204600F0BCFB31
:10529800284670BD4FF0FF3682E7104A1378032B7B
:1052A8003FF677AF591C84F82730117091E7032235
:1052B8000B49F0B205F026FE99E7022120469847EF
:1052C800A8E703220749F0B205F01CFE8FE700BFEC
:1052D800D4290020ED330000D52D0000B92F00207F
:1052E800CD330000DD33000038B515461A460446B4
:1052F80000F01CFB094A0023FF21204622600122FE
:1053080084F8265084F8283184F82C3184F8271042
:1053180084F82B2184F8253038BD00BF8809002087
:10532800EFF3108272B6BFF35F8FBFF34F8FBFF3F7
:105338006F8F002380F8283180F8283082F3108896
:10534800BFF35F8FBFF34F8FBFF36F8FBFF35F8FD5
:10535800BFF34F8FBFF36F8F704700BF03682DE90E
:10536800F0412E4E0446DD6888461746B5424FD1B7
:105378000279032A48D00279042A10D0D3F8803061
:10538800274A934247D105220121204600F03CFBE1
:1053980000224021204600F037FB0423237194F8B3
:1053A8002851EDB285B3B8F1000F27D037B3EFF32A
:1053B800108672B6BFF35F8FBFF34F8FBFF36F8F47
:1053C80094F828303A78033B934204DC94F8282078
:1053D800043AD2B23A70404604F12D0105F01CFEA1
:1053E80086F31088BFF35F8FBFF34F8FBFF36F8FC4
:1053F800BFF35F8FBFF34F8FBFF36F8F2046FFF769
:105408008FFF2846BDE8F08100252846BDE8F081D9
:10541800A8470546C6E704219847B4E75D2E000073
:10542800D52D000070B50446122100F08FFA1C211A
:105438000546204600F08AFAFF2212210646204639
:1054480000F0E2FA2379042B35D02379042B43D0DA
:105458002379032B0ED02379052B23D0FF22122189
:10546800204600F0D1FA2046FF221221BDE8704004
:1054780000F0CABA2A07EED5E38A01339BB2E38269
:105488002379022BEAD023684E4AD3F8803093421E
:1054980040F0948001222046114600F0B5FA02231C
:1054A8002371DBE76B07D9D505F00105257623794C
:1054B800022BE8D1D2E715F0A00F05D194F82B31D3
:1054C800002BC2D07006C0D4638A204601339BB239
:1054D8006382FFF725FFC1E76906B9D51321204686
:1054E80000F034FA10210546204600F02FFA0D216D
:1054F8000246204600F088FA2B4604F129020021D2
:10550800204600F0F3FA1921204684F8285000F0CC
:105518001DFA1A2140B20028B8BF03308310204674
:1055280084F82A3100F012FA94F92A3100B2002BDB
:1055380020823EDB238A24491BB21B0181FB032105
:10554800DA170B44C2EBE3031BB2238294F8293128
:1055580013BB238AA43B1BB2238294F82830032B65
:1055680014D994F82A3094F8290094F82B10E07193
:1055780094F82C202372A3796172A2728BB9E37913
:1055880062799A420DD0E379FF2B0AD094F828313A
:10559800002B3FF463AF8AE7238A9D3B1BB223822B
:1055A800DBE7A38A012213449BB2A38284F8282153
:1055B800ECE7228A13441BB22382C7E70221204664
:1055C800984767E7D52D000089888888024B1868B6
:1055D80008B1FFF727BF7047D4290020024B58684D
:1055E80008B1FFF71FBF7047D4290020024B986805
:1055F80008B1FFF717BF7047D4290020000000004A
:10560800B7EEC06A06219FED187B9FED195B38B590
:1056180026EE076B04462DED028BB0EE408A86EE2F
:10562800057BFCEEC77B17EE905AC5F3074200F0E6
:10563800EBF9C5F307220721204600F0E5F9082118
:10564800EAB2204600F0E0F9DFED0B7A0120B4EE73
:10565800E78ABDEC028BF1EE10FAACBF03460023DB
:1056680084F8293138BD00BF0000000080842E4135
:105678000000000080844E4000C0424438B5054612
:1056880080F8252012BB14290CDD8F2407224D2118
:10569800284600F0B9F9224628460921BDE83840D5
:1056A80000F0B2B9012920DD112920DC8C1E64F03C
:1056B8007F04E4B204224D21284600F0A5F92246D1
:1056C80028460921BDE8384000F09EB981F304025C
:1056D800092142F07002D2B200F096F9284604225D
:1056E8004D21BDE8384000F08FB98024E2E74C1F17
:1056F80064F07F04E4B2C9E70120704700207047D6
:105708008171704741717047C1727047017370476A
:1057180041737047837B23EA020211438173704708
:10572800C0797047007A7047407A7047807A70472E
:10573800008A00B2704700BF007970470171704756
:10574800408A80B2704700BF808A80B2704700BF2D
:10575800C08A80B2704700BF0379032B08D110B507
:10576800044606F0AFFE2379032BFAD0012010BDC2
:1057780001207047F8B50B4E37683368DB1B8B4246
:105788000DD20C46054605E006F09CFE3368DB1B8F
:10579800A34204D22B79032BF6D00120F8BD0020B8
:1057A800F8BD00BF902F002038B504460D4602E032
:1057B80006F088FE35B923682046DB68984700283C
:1057C800F6D038BD284605F0A9FAF4E72DE9F041EE
:1057D8000D4F04460D461646D7F8008006E02368AC
:1057E800DB68984748B906F06DFE46B93B68204625
:1057F800A3EB0803AB42F2D30020BDE8F0813046AA
:1058080005F08CFAF2E700BF902F0020C36963B15E
:1058180003682DE9F0411B6B0446134E134DB34248
:105828002F6804D10120BDE8F081012070474FF0B6
:10583800640809E005F06EF808FB00F005F06EFA60
:1058480023681B6BB342EDD02046984703460A21D4
:105858000120002BE6D02B68E269DB1B9342E9D9D3
:105868000020BDE8F08100BFFD340000902F00202B
:105878000022FF2110B4074C0271046042825DF8D7
:10588800044B82824171C17281818273C282C2617A
:10589800704700BFA0070020704700BF704700BFD7
:1058A800704700BF704700BF704700BF4171704725
:1058B80081717047017170478371024B01714271A8
:1058C8000360704738070020002190F8240005F095
:1058D800A3BA00BF012190F8240005F09DBA00BFCB
:1058E80010B50446006A0368DB68984794F82400FA
:1058F800FF2802D0012105F0CBFA23680A4ADB6FA2
:10590800934209D1012194F8240005F085FA642016
:1059180005F004FA012010BD20469847642005F0E0
:10592800FDF9012010BD00BFD536000070B5044652
:105938000E461546FFF79CFF034B204684F824606B
:105948002562236070BD00BFB006002070B5044614
:105958000D46EFF3108672B6BFF35F8FBFF34F8F1C
:10596800BFF36F8F006A244A03681B6A934235D1DC
:105978002368224A9B6F934236D1002194F8240071
:1059880005F04AFA206A05F07F0103681B6898470A
:10599800206A002103681B6898472368184A05464F
:1059A800DB6F934225D1012194F8240005F034FAE5
:1059B800206A144A03685B6A934218D186F31088F8
:1059C800BFF35F8FBFF34F8FBFF36F8FBFF35F8F4F
:1059D800BFF34F8FBFF36F8F284670BD984723687A
:1059E800064A9B6F9342C8D020469847CAE7984713
:1059F800E4E720469847DBE7A1360000C9360000F7
:105A0800D5360000A5360000F8B506460C46174600
:105A1800EFF3108572B6BFF35F8FBFF34F8FBFF3FD
:105A28006F8F006A2A4A03681B6A934242D133681F
:105A3800284A9B6F934243D1002196F8240005F031
:105A4800EBF9306A44F0800103681B689847336AB1
:105A5800394604461A681846136898471E4B1F496A
:105A680048681A681E4BA3FB0232920C4B681B1A3B
:105A78009A42FBD833681B4ADB6F934225D1012138
:105A880096F8240005F0C8F9306A174A03685B6A7B
:105A9800934218D185F31088BFF35F8FBFF34F8F00
:105AA800BFF36F8FBFF35F8FBFF34F8FBFF36F8F5E
:105AB8002046F8BD98473368064A9B6F9342BBD08F
:105AC80030469847BDE79847E4E730469847DBE714
:105AD800A1360000C9360000A4110020001000E023
:105AE80083DE1B43D5360000A53600002DE9F041C2
:105AF80005460F4614461E46EFF3108872B6BFF3EC
:105B08005F8FBFF34F8FBFF36F8F006A274A036819
:105B18001B6A93423CD12B68254A9B6F93423DD127
:105B2800002195F8240005F077F9286A07F07F012D
:105B380003681B68984707464EB12644286A002127
:105B480003681A68904704F8010BB442F6D12B6831
:105B5800184ADB6F934226D1012195F8240005F0FD
:105B68005BF9286A144A03685B6A934219D188F37F
:105B78001088BFF35F8FBFF34F8FBFF36F8FBFF3F3
:105B88005F8FBFF34F8FBFF36F8F3846BDE8F0814B
:105B980098472B68064A9B6F9342C1D0284698477E
:105BA800C3E79847E3E728469847DAE7A1360000B5
:105BB800C9360000D5360000A53600002DE9F041B1
:105BC80005460F4614461E46EFF3108872B6BFF31B
:105BD8005F8FBFF34F8FBFF36F8F006A274A036849
:105BE8001B6A93423BD12B68254A9B6F93423CD159
:105BF800002195F8240005F00FF9286A47F0800184
:105C080003681B689847074646B12644286A14F873
:105C1800011B026812689047B442F7D12B68194AF1
:105C2800DB6F934226D1012195F8240005F0F4F8A2
:105C3800286A154A03685B6A934219D188F3108869
:105C4800BFF35F8FBFF34F8FBFF36F8FBFF35F8FCC
:105C5800BFF34F8FBFF36F8F3846BDE8F081984789
:105C68002B68074A9B6F9342C2D028469847C4E7DF
:105C78009847E3E728469847DAE700BFA1360000CF
:105C8800C9360000D5360000A5360000006A034A70
:105C980003689B6A934200D170471847A9360000F1
:105CA80070B500F1240384B08C46044601AD164655
:105CB80093E8070085E807004FEA4C122946206A56
:105CC80001F068FB012806D132462946206A01F016
:105CD80045FB04B070BD002004B070BD10B504468B
:105CE80000F0BAFD002384F8313084F8333010BD59
:105CF80038B514460D46002200F12401006A01F06F
:105D08002DFB034620B1428901202A801B8923806C
:105D180038BD00BF38B514460D46002200F12401F5
:105D2800006A01F01BFB034620B1C28901202A80CA
:105D38009B89238038BD00BF38B50D4690F83110D7
:105D480009B1002038BD382204460AF0B1FD01230C
:105D580040222562184684F8333084F8312038BD53
:105D6800F0B40D460978202903D115F8014F202CED
:105D7800FBD0156095602C782F2C11D084B16E1C47
:105D88003C2C1D4F35462AD8212C12D804F1FF3C53
:105D9800BCF11E0F16D80020F0BC704715F8014F53
:105DA800202CFBD02F2CF9D01D601146F0BC01F03F
:105DB800C3B9A4F1220C5FFA8CFC27FA0CFC1CF086
:105DC800010FE8D12E2C01D0202C0DD116F8014B53
:105DD800002CE5D02F2CE3D03C2C3546D4D95C2CB4
:105DE800D9D003D97C2CD6D09660EFE73E3C012C65
:105DF800FAD80020F0BC7047012100052DE9F04FCA
:105E080090F8333083B00546DC0774D558060F4642
:105E1800904640F1B080D5E90023D5E9041018EB8D
:105E2800020443F10003A14270EB0303C0F0A98010
:105E3800B8F1000F5BD0464605F11809D5E90032E4
:105E4800D5F820A0DAF838441C40C4F3080B002C1D
:105E580070D1134370D195F831305A064CBFDAF837
:105E68003424EA69AA619AF84504023ADAF82C144B
:105E7800630A824001EB54211144BBF1000F45D164
:105E8800B6F5007F42D3DAF81C2291423ED0B6F52F
:105E9800806F58D34FF0010B0BFA00FBABEB030BF1
:105EA800730A9B4528BF9B4691424FEA4B240AD868
:105EB80001EB0B039A4206D20AF50470019103F034
:105EC8001BFE0199B8B1DAF814025B460268D2F8F1
:105ED80014A03A46D04770B123462744D5E90012AA
:105EE8005B1842F10002361BC5E90032A8D14046D2
:105EF80003B0BDE8F08F95F832304FF0FF3043F033
:105F0800020385F8323003B0BDE8F08FCBF500749A
:105F180000220AF50470B44228BF344603F018FE84
:105F28000028E8D000EB0B012246384605F074F84B
:105F38002346D2E7AA6996E795F833305B060ED573
:105F4800AA6901328EE7DAF814023A4603681B6937
:105F580098470028CFD04FF400731C46BDE74A4647
:105F68005046A96901F058FA0028C4DB0CD0D5F8CE
:105F780020A0AA6977E795F8313019077FF558AF5F
:105F880049E7A1EB020853E795F8313013F0500FB9
:105F9800B1D0A8EB06084046AAE700BFF0B583B029
:105FA8000122044685690DF10701D0E90067FFF772
:105FB80025FF0128A5610CBF9DF807004FF0FF30B1
:105FC800C4E9006703B0F0BD2DE9F04F1F4690F813
:105FD800313083B00446D0F81880002B51D01646D3
:105FE800D0E9001CBC4508BF91425CD056EA0702C4
:105FF8004DD01D0704D5D0E90402B042BA4140D3C0
:1060080094F83320751ED4F820A0019247F1FF3090
:106018009AF845240932D2B2C2F1200ED540A2F135
:10602800200900FA0EFB20FA09F045EA0B050543A2
:106038000198400633D4481E20FA02F24CF1FF3092
:1060480051EA0C0C00FA0EFE20FA09F042EA0E02A0
:1060580042EA000201D0954229D25B064CBFDAF829
:106068003434E369A36104F1180906E0A169013D2C
:10607800206A01F0D1F9002803DD4A46002DF5D148
:1060880007E00020C4F8188003B0BDE8F08F0023B3
:1060980083610120C4E9006703B0BDE8F08FE369BC
:1060A8002B44A361F5E7012003B0BDE8F08FAD1ADA
:1060B800D9E700BF2DE9F04F174690F831208FB08F
:1060C8000546002A40F0D7808B4691F8311011F030
:1060D800500F00F0D08003F003019A46032900F026
:1060E800CA80013103F0080041EA00030293002F3F
:1060F80000F0CB80396901F10E08B649A1FB0818F8
:10610800DBE900104FEAD808014308F102085FFAFA
:1061180088F805D000200021CBF81820CBE9000131
:106128000024029B264643F040030393202206A93D
:106138005846FFF763FE00B3202840F09C809DF985
:1061480018209DF81830002AC0F2A28034B9DBF874
:106158000020A2F12009DBF818200192444501D261
:106168000134E4B2002B00F01381202206A958461E
:106178000026FFF743FE0028DED11AF4007F7AD00C
:10618800029B9B0777D5002F75D0444517D2DDF8C1
:1061980004A0202206A95846FFF730FE631C0028F9
:1061A80061D0202867D12CB9DBF80020DBF818A0D3
:1061B800A2F12009DCB2A045EBD8CDF804A0382222
:1061C800002128469BF833400AF072FBDBF82030A8
:1061D800C4F38014019A2B620823002685F82C400A
:1061E80085F831303B68C5E909297B60BE81B8F183
:1061F800000F33D008F1FF39B346DFF8DCA15FFAAE
:1062080089F9012259462846FFF74AFD044690B30A
:1062180090F90020002A2EDB202200210AF048FBFA
:10622800002E00F0BC80BBF1010F00F0D780C12325
:10623800A3461E3404F81E3CBB8938461BB9D7E96F
:1062480001239A4205D003F0C1FC2BF8020FA345A5
:10625800F2D101365FFA86FBD845D2D8284600F03D
:10626800FBFA06460DE05846DBF8186000F024FB00
:10627800002840F0918000231E4685F8313085F8CB
:10628800333030460FB0BDE8F08F4FF0030847E7D2
:1062980056BB444538BF0024852B7FF447AF3146B1
:1062A8003822284601260AF003FB9DF81C209DF899
:1062B800193085F8303002F03703D20658BF43F062
:1062C800080385F83130DBF80030DBF82020203B6C
:1062D8002A62DBF81820C5E909239BF83330C3F399
:1062E800801385F82C3021E7C02B28D0C12B7FF4F0
:1062F8003CAF3A4606A9284600F092FEE8B1BB89B1
:10630800DBB9D7E901329A4217D11AF4006FB2D13A
:106318001AF4884F70D195F8333098076CD41AF472
:10632800806FA8D11AF4804FABD02846D5E9042352
:10633800FFF74AFE0028A4D19DE70646F6E6029B31
:1063480085F833309DF819309B0702D5039B85F8F3
:1063580033300B9BEB61DDE90823C5E90423DDE954
:106368000C23C5E90223002FCFD04FF000033A6970
:10637800BB813B687B609DF81B309A427FF4F5AE89
:10638800BE8ABDF81C30F61AB6FA86F67609CDE64E
:10639800002F7FF4F2AE6EE7CBF818600BE7852389
:1063A800237085F8309084F80190DAF80030002BDB
:1063B80046D00DF113020DF1160105A89847BDF856
:1063C80014306381BDF8163023819DF8133023758E
:1063D8003FE700BF8988888898290020C02384F86F
:1063E80001B02370029B63F07F0385F833303B696B
:1063F800E370BB8AA3802CE795F83130D9063FF5C6
:106408003AAF13F001017FF436AF1AF4806F89D0E8
:1064180095F8332092077FF52EAF002B3FF42BAF72
:10642800D5E90032134304D000220023A961C5E94D
:106438000023284600F042FC00283FF41CAF20E768
:1064480045F621036381E381638202E72DE9F04386
:10645800002597B0994690F8313001921495ADF81F
:106468001450002B3ED191F831300F4613F0500FE5
:1064780038D01378044616462F2B37D04FF0000833
:1064880001AB02AA31462046FFF76AFC50B3019ED1
:106498003378002B3ED0002302AA39462046FFF766
:1064A80009FEF8B1A44608AD04F13007DCF8000095
:1064B8000CF1100C5CF80C1CAE465CF8082C10357E
:1064C8005CF8043CBC45AEE80F00EFD1DCF80000F6
:1064D80008AF2860204600F0BFF984F8318084F8BE
:1064E8003380CDE7002017B0BDE8F08316F8011F10
:1064F8002F29FBD00196B1B9382220463D6A0AF00F
:10650800D7F9012340222562184684F8333084F8ED
:106518003120E8E74B4602AA39462046FFF7CAFD74
:1065280017B0BDE8F0833822002108A83D6A0AF0B8
:10653800BFF9012308AF10958DF8533040238DF82B
:1065480051309BE719B101F58961FFF77FBF084614
:10655800704700BF90F8313063B991F8313013F0CB
:10656800500F07D00B6813F01F0C03D11346624677
:10657800FFF7A0BD002070478169F8B50446006A9E
:1065880001B10131012200F00DFE0128054632D982
:1065980001230146206A1A4600F064FE064650B3FD
:1065A800A3695BB394F83320510612D5591CA9424C
:1065B80018D022F04002E16984F8332005E0206A0F
:1065C80000F04CFF3946B0B1A3694F1C99423A46D6
:1065D800F5D34FF0FF322946206A00F03FFF50B153
:1065E800A16911B93046A561F8BD2A46206A00F0B4
:1065F80035FF0028F6D100263046F8BD94F8333030
:1066080043F0400384F83330ECE700BF90F83330B0
:106618009A0736D5C16970B50546A1B90024214647
:1066280007E0037803F07F03037095F830308B425E
:1066380029D3013401222846FFF732FBE1B20028B2
:10664800EFD1002070BD5B06006A34D590F8453460
:10665800D5E902240933013ADBB244F1FF34C3F12E
:10666800200CDA40203B04FA0CFC24FA03F342EA3B
:106678000C021A430023013200F0F4FD0028CDD1AA
:10668800DFE70020704700232C6A85F83130204668
:1066980085F8333003F030FA0028D2D004F50470BE
:1066A80003F02AFA0028CCD0D4F840040368BDE8E7
:1066B80070401B6A184700F0F1FE0028AED1C0E711
:1066C80090F83130DB0601D40020704710B5002265
:1066D80088B000230446FFF777FC08E020281BD188
:1066E8009DF900309DF80020002B15DB32B12022E7
:1066F80069462046FFF782FB0028EFD194F8333033
:106708000822204643F0020384F8312084F833300D
:10671800FFF77CFF08B010BD002008B010BD00BF17
:106728002DE9F0414FF0000882B04A4F0646444632
:10673800414600223046FFF7B3FA054630B10178EA
:10674800C02969D0C1292BD0852909D096F83230C3
:10675800002043F0010386F8323002B0BDE8F08132
:1067680096F8313003F0370383803B6883B10DF12D
:1067780003020DF1060101A89847BDF80630AB8168
:106788002B82BDF80430EB816B829DF803306B756A
:10679800326A92F8103243F0010382F810322978F5
:1067A800A1F185000022B0FA80F0400901E004223E
:1067B800A95CE303012A02F1010243EA540311FA36
:1067C80083F39CB201D10028F1D11F2AF0D908F136
:1067D800010896F830305FFA88F18B42A9D201227D
:1067E80006F12401306A00F0B9FD0028AED0356A00
:1067F8004480284603F080F90028A7D005F50470E6
:1068080003F07AF90028A1D0D5F8400403681B6A80
:1068180098470028A1D199E796F8333013F0400F34
:10682800437814BF43F0020303F0FD034370D6E935
:106838000401D6E90732C5E90201D6E902016B6114
:10684800C5E9060192F8103243F0010382F81032CC
:106858002978A5E79829002038B590F8313043B356
:1068680090F93320044690F83330002A0CDB056A8F
:10687800284603F041F978B994F83230002043F003
:10688800010384F8323038BD03F07F0380F83330D9
:10689800BDE83840FFF744BF05F5047003F02CF954
:1068A8000028E9D0D5F8400403681B6A98470028F7
:1068B800E2D0012038BD00BF70B590F831300546F0
:1068C8005A064CD480682B6AD3F83C341844B0F18B
:1068D800806F01D3002070BD2846FFF74DFE0028C9
:1068E800F8D0286A0024AE6990F84534023E9E40EC
:1068F800D0F82C341E443119052200F504700134F7
:1069080003F026F94FF4007200210028E2D009F0C4
:10691800CFFF286A012390F8452493409C42EAD38C
:1069280095F831305B0615D495F8332062F07F0274
:10693800D5E9023185F83320D0F83C249B1841F181
:106948000000AB60D5E90431E8609B1841F1000113
:10695800C5E904312846BDE87040FFF77DBF006AED
:1069680000F0A2FEAFE700BF70B5044690F8310012
:106978009CB0002310F0180F0C931A9303D0206AD0
:106988000B6A984202D000201CB070BD40F601236B
:106998006846FFF75BFD0028F5D0A44604F13006F1
:1069A8000EADDCF800000CF1100C5CF80C1CAE46C7
:1069B8005CF8082C10355CF8043CB445AEE80F00D0
:1069C800EFD1DCF8000009AA04F1240328609DF83F
:1069D800305007CA83E8070094F83330204684F81B
:1069E800305063F07F0384F83330FFF735FF002819
:1069F800C9D00021022208230EA815918DF86B201A
:106A08008DF86930FFF702FEBEE700BF38B591F890
:106A1800313013F0500F02D10025284638BD40F61A
:106A280002230446FFF746FB0028F5D01023204632
:106A380084F83130FFF740FF05460028ECD0A16903
:106A4800002200232046E161FFF7BEFAC12294F834
:106A5800313084F83320002BDFD04123204684F8DE
:106A68003330BDE83840FFF75BBE00BFF0B5002506
:106A780097B01F4690F831300192ADF81450149534
:106A8800002B46D191F831300E4613F0500F40D00C
:106A98001378044611462F2B3ED001AB02AA20469C
:106AA800FFF75EF9002834D0019B1B78002B41D0FA
:106AB800002302AA31462046FFF7FCFA30B947B353
:106AC80002AA31462046FFF7A1FF10B3A44608AD3D
:106AD80004F13006DCF800000CF1100C5CF80C1C1A
:106AE800AE465CF8082C10355CF8043CB445AEE8BA
:106AF8000F00EFD1DCF8000008AE28602046FFF751
:106B0800EDF8019901AB02AA2046FFF729F9002800
:106B1800CAD1002017B0F0BD013101910B782F2B9D
:106B2800FAD0316A08A8FFF707F90028F1D00199CF
:106B380008AEB2E702AA31462046FFF767FF17B052
:106B4800F0BD00BF2DE9F04F0E4690F8311083B02C
:106B580009079DF830B09DF834909DF838809DF86D
:106B68003C7040F18580A2F2BC7294B27F2C7FD831
:106B78005A1E0B2A7CD80BF1FF321E2A78D8B8F19E
:106B88003B0F98BFB9F1170F8CBF4FF0010A4FF0B8
:106B9800000A3B2F88BF4AF0010ABAF1000F67D1FB
:106BA80005460193FFF758FE002861D0019B514626
:106BB8004BEA431B7B0817F001074BEA4424D346F2
:106BC80043EA481818BF6427A4B248EAC92806F05F
:106BD80001091FFA88F800222846FFF761F8002803
:106BE80046D090F800C0BCF1850F45D00CF14003A9
:106BF800DBB2012B3CD8ACF185010023B1FA81F15D
:106C0800490902E0042310F803C04FEACB32012BF4
:106C180003F1010342EA5B021CFA82F21FFA82FBCB
:106C280001D10029EED11F2BEDD90AF1010A95F8FF
:106C380030305FFA8AF18B42CDD2012205F124016E
